:020000041000EA
:1000000000C0082011AF00104DAF00104FAF00101E
:1000100051AF001053AF001055AF001000000000AA
:1000200000000000000000000000000057AF0010BA
:10003000000000000000000059AF001069760010B9
:100040005DAF00105FAF001039810010DD8000103F
:1000500065AF0010ED7E0010017F0010157F0010CD
:100060006DAF00106FAF001071AF001073AF0010D4
:1000700075AF0010ED7A0010B17E0010C57E001043
:100080007DAF00107FAF001081AF001083AF001074
:1000900085AF001087AF001089AF00108BAF001044
:1000A0008DAF00108FAF001091AF001093AF001014
:1000B000FD7F00100B8000101980001027800010B9
:1000C0009DAF00109FAF0010D97E0010A3AF0010AD
:1000D000017B0010A7AF0010A9AF0010ABAF00105C
:1000E000ADAF0010AFAF0010B1AF0010B3AF001054
:1000F000B5AF0010B7AF0010B9AF0010BBAF001024
:10010000BDAF0010BFAF0010C1AF0010C3AF0010F3
:10011000C5AF0010C7AF0010C9AF0010CBAF0010C3
:10012000CDAF0010CFAF0010D1AF0010D3AF001093
:10013000D5AF0010D7AF0010D9AF0010DBAF001063
:10014000DDAF0010DFAF0010E1AF0010E3AF001033
:100150003580001043800010518000105F80001037
:100160006D8000107B800010898000109780001047
:10017000A5800010B3800010C1800010CF80001057
:10018000FDAF0010FFAF001001B0001003B0001071
:1001900005B0001007B0001009B000100BB000103F
:1001A0000DB000100FB0001011B0001013B000100F
:1001B00015B0001017B0001019B0001010B5054CA4
:1001C000237833B9044B13B10448AFF30080012303
:1001D000237010BD700B002000000000FC4C0110CB
:1001E00008B5034B1BB103490348AFF3008008BDBA
:1001F00000000000740B0020FC4C011080B584B09E
:1002000000AF7860124B1B68002B02D1104B114AD3
:100210001A600F4B1B68FB600D4B1A687B68134418
:100220001A460D4B9A4207D90BF0C4FC03460C2228
:100230001A604FF0FF3306E0054B1A687B681344E1
:10024000034A1360FB6818461037BD4680BD00BFE7
:100250008C0B00208013002000B0082080B400AF79
:100260006FF010031846BD465DF8047B704780B4FC
:1002700000AF6FF010031846BD465DF8047B704771
:1002800080B485B000AF4FF080439B6803F4606397
:10029000BB60BB68B3F5406F34D0BB68B3F5406F4B
:1002A00034D8BB68B3F5206F28D0BB68B3F5206F96
:1002B0002CD8BB68B3F5006F1DD0BB68B3F5006FD9
:1002C00024D8BB68B3F5C06F11D0BB68B3F5C06F5D
:1002D0001CD8BB68002B04D0BB68B3F5806F03D07B
:1002E00014E0154BFB6014E0144BFB6011E04FF47D
:1002F000FA53FB600DE0124BFB600AE04FF4E103A0
:10030000FB6006E04FF40043FB6002E00A4BFB6039
:1003100000BF4FF080439B689B0903F007037B609D
:10032000FA687B6822FA03F3064A136000BF1437A9
:10033000BD465DF8047B7047008793030048E801E1
:1003400000D8B8050000002080B483B000AF4FF0A3
:1003500080439B6803F4E0737B601F4B1B691E4A5C
:1003600043F0080313614FF080439B684FF08042D5
:1003700043F4E073936000BF184B1B6C03F0010360
:10038000002BF9D000BF154B1B6C03F00203002BB0
:10039000F9D000BF114B1B6C03F00403002BF9D004
:1003A0004FF080439B6823F4E0724FF080417B68FC
:1003B00013438B604FF080431B6823F440334FF0AE
:1003C000804243F400331360002318460C37BD46C7
:1003D0005DF8047B704700BF006C004000440040A3
:1003E00080B400AF00231846BD465DF8047B70471B
:1003F00080B400AF00BFBD465DF8047B70470000CD
:1004000080B500AF4C4B4D4A9A604D4B9B68302BEA
:1004100010D94B4B1B6C03F00203002B0AD04FF09A
:1004200080439B684FF0804223F4E0739360042084
:1004300004F03AFD404BD3F888303F4A43F4700350
:10044000C2F88830BFF34F8F00BFBFF36F8F00BF7C
:100450003C4B3D4A43F0010393643C4B01221A603C
:100460003B4B40221A60394B00221A60394B012263
:10047000C3F8002700BF374BD3F8003103F48033B3
:10048000002BF8D0334BD3F80031324A43F001034C
:10049000C2F8003100BF2F4BD3F8003103F4803392
:1004A000002BF8D0FFF7ECFE002004F0B0FC012098
:1004B00004F0ADFC284BD3F8C030274B4FF0FF328F
:1004C000C3F8C020244BD3F8B830234B4FF0FF3291
:1004D000C3F8B820204B1B6E1F4B4FF0FF321A663B
:1004E0001D4B5B6E1C4B00225A661C4BD3F8C03070
:1004F0001A4B4FF0FF32C3F8C020184BD3F8B83076
:10050000164B4FF0FF32C3F8B820144B1B6E134B41
:100510004FF0FF321A66114B5B6E104B00225A6689
:10052000094B1B68084A23F480631360FFF758FFE8
:10053000FFF75EFF00BF80BD00ED00E0000000108F
:100540000044004011AF001000680040000C004063
:100550000C04004000A002400080004000900040D9
:1005600080B483B000AFEFF310833B603B687B60E7
:100570007B68002B0CBF01230023DBB21A46044B1F
:100580001A6000BF0C37BD465DF8047B704700BFA2
:100590000400002080B500AFFFF7E2FF054B1B68A9
:1005A000002B01D072B600BF024B01225A6000BF7F
:1005B00080BD00BF0400002080B500AF064B1B6863
:1005C000002B01D062B600BF034B00225A60FFF738
:1005D000C7FF00BF80BD00BF0400002080B485B00D
:1005E00000AF7860064BFB607B689B00FA681344A1
:1005F000FB60FB6818461437BD465DF8047B704706
:1006000020100B4080B489B000AFF860B9607A6008
:10061000FB687B61BB68FB617B689B08BB617B6897
:1006200003F003037B6005E0FB691A1DFA611A6899
:100630007B691A60BB695A1EBA61002BF4D1FB6951
:10064000BB6005E0BB685A1CBA601A78FB681A7078
:100650007B685A1E7A60002BF4D100BF00BF24379C
:10066000BD465DF8047B704780B489B000AFF86088
:10067000B9607A60BB687B61FB68FB617B689B0843
:10068000BB617B6803F003037B6005E0FB691A1D17
:10069000FA617A6912681A60BB695A1EBA61002B46
:1006A000F4D1FB69FB6006E0FB685A1CFA60BA688B
:1006B0001278D2B21A707B685A1E7A60002BF3D17E
:1006C00000BF00BF2437BD465DF8047B70470000C3
:1006D00080B584B000AF78607B68002B05D0102215
:1006E000796839480CF032FC02E0374B00221A607E
:1006F000354B9B68002B08D0334B9B6898470346CB
:10070000002B02D04FF0FF3359E0304B40221A60EB
:100710000123FB6006E0FB68184600F013FAFB6853
:100720000133FB60FB680B2BF5DD294B00221A70AF
:10073000284B00225A70274B0022DA80254B0022DA
:100740001A81244B0022DA72224B0022C3F8A02423
:10075000204B40F60802C3F860241E4B0022C3F869
:1007600064241C4B4FF48072C3F86824194B002298
:10077000C3F86C24174B0122C3F81424154B012233
:10078000C3F81824134B0022C3F85C24114B002239
:10079000C3F848240F4B0222C3F84C240D4B01220E
:1007A000C3F830240B4B0122C3F83C24094B002230
:1007B000C3F81024074B0122C3F810240023184665
:1007C0001037BD4680BD00BFF40B0020C00B0020D9
:1007D000F00B002000100B4080B400AF124B1B68E0
:1007E000002B08D0114B5B78DBB2104A43F020039A
:1007F000DBB2537007E00D4B5B78DBB20B4A23F0A2
:100800002003DBB25370094B5B78DBB2074A43F03D
:100810004003DBB25370064B00221A7000231846C7
:10082000BD465DF8047B7047F40B002000100B40C0
:10083000F00B002080B400AF084B5B78DBB2074AB6
:1008400023F04003DBB25370054B00221A700023E3
:100850001846BD465DF8047B704700BF00100B4092
:10086000F00B002080B584B000AFF8600B467A60D2
:10087000FB72FB68002B06D0FB680B2B03D87B6850
:10088000B3F5007F02D94FF0FF3358E0F86800F06D
:1008900059F9FFF77FFE2C4BFA68D2B29A73FB7AB4
:1008A000022B25D0022B41DC002B44D0012B3DD163
:1008B000254B80229A75244B0222DA75224B7A68E6
:1008C00092B29A822149FB687A6841F823201E4B34
:1008D0001B899BB21AB20121FB6801FA03F31BB218
:1008E000DB431BB213401AB2174B92B21A8123E0BA
:1008F000154B40229A74144B2222DA74124B7A68F8
:1009000092B21A821149FB687A6841F823200E4B93
:10091000DB889BB21AB20121FB6801FA03F31BB218
:1009200013431AB2084B92B2DA8005E0FFF744FE97
:100930004FF0FF3303E000BFFFF73EFE00231846F1
:100940001037BD4680BD00BF00100B40C00B00201B
:1009500080B483B000AF7860074A7B6852F82330D8
:10096000002B14BF01230023DBB218460C37BD4611
:100970005DF8047B704700BFC00B002080B584B0D9
:1009800000AF78607868FFF7E3FF0346002B02D1E1
:100990004FF0FF334AE0FFF7FDFD264B7A68D2B2F5
:1009A0009A737B68002B0BD1224B9B7CDBB2214AD4
:1009B00043F06003DBB293741F4B00221A7017E000
:1009C0001C4BDB7CDBB203F02003002B08D0194B5F
:1009D0009B7CDBB2174A43F01003DBB2937407E051
:1009E000144B9B7DDBB2134A43F02003DBB29375BB
:1009F000124A7B6852F82330FB60104A7B68002162
:100A000042F82310FB68002B0DD0FB684FF0FF323B
:100A10001A61FB685B69002B05D0FB685B69FA68AB
:100A2000926910469847FFF7C7FD00231846103714
:100A3000BD4680BD00100B40F00B0020900B002045
:100A400080B582B000AF78607868FFF781FF034619
:100A5000002B02D14FF0FF332FE0FFF79BFD194B26
:100A60007A68D2B29A737B68002B23D0154BDB7C5B
:100A7000DBB203F02003002B0ED0124B9B7CDBB2C9
:100A800003F00103002B03D00E4B48229A7411E0AF
:100A90000C4B40229A740DE00A4B9B7DDBB203F0B5
:100AA0000103002B03D0074B90229A7502E0054BFF
:100AB00080229A75FFF780FD002318460837BD464F
:100AC00080BD00BF00100B4080B485B000AF7860DF
:100AD0001B4B7A68D2B29A737B68002B1ED0184BDE
:100AE000DB7CDBB203F02003002B0BD0144B9B7C90
:100AF000DBB203F01003002B14BF01230023DBB291
:100B0000FB6016E00E4B9B7DDBB203F02003002B55
:100B100014BF01230023DBB2FB600AE0084B9B7C7F
:100B2000DBB203F02003002B14BF01230023DBB250
:100B3000FB60FB6818461437BD465DF8047B7047C0
:100B400000100B4080B584B000AF78607B680B2B41
:100B500002D94FF0FF3374E0FFF71CFD3B4A7B687E
:100B600052F82330FB60394A7B68002142F8231099
:100B70007B68002B62D0364A7B68002142F8231044
:100B8000344B7A68D2B29A73324BDB889BB21AB27A
:100B900001217B6801FA03F31BB2DB431BB2134054
:100BA0001AB22C4B92B2DA802A4B1B899BB21AB232
:100BB00001217B6801FA03F31BB2DB431BB2134034
:100BC0001AB2244B92B21A81224B9B7CDBB203F007
:100BD0000103002B02D01F4B08229A741D4B1022D8
:100BE0009A741C4B0222DA741A4B00221A82194B97
:100BF0009B7DDBB203F00103002B02D0154B1022CA
:100C00009A75144B20229A75124B0222DA75114BF9
:100C100000229A82FFF7D0FCFB68002B10D0FB6803
:100C20004FF0FF321A61FB685B69002B08D0FB684C
:100C30005B69FA6892691046984701E0FFF7BCFCCF
:100C4000002318461037BD4680BD00BF900B002022
:100C5000C00B002000100B4080B584B000AF78605E
:100C60007B68002B02D04FF0FF331EE0FFF792FCB1
:100C7000104B9B7BDBB2FB600E4B00229A730E4B3A
:100C80001B78012B07D10B4B9B7CDBB2094A43F04D
:100C90004803DBB29374084B00221A70054BFA68C4
:100CA000D2B29A73FFF788FC002318461037BD466E
:100CB00080BD00BF00100B40F00B002080B588B055
:100CC00000AF78600023FB618FE00122FB6902FA2C
:100CD00003F37B617A687B691340002B7FD0474A1E
:100CE000FB6952F82330002B7BD0454BFA69D2B216
:100CF0009A73424AFB6952F823303B613B699A6818
:100D00003B69DB68D31AFB60FB68002B57D03D4A78
:100D1000FB6952F82330FA689A4205D3394AFB69D5
:100D200052F82330BB6101E0FB68BB61F869FFF753
:100D300055FC3B695A683B69DB681344BA6919463C
:100D4000FFF760FC3B69DA68BB691A443B69DA600B
:100D5000FB69002B2FD1294AFB6952F82330DA684E
:100D60002649FB6951F823309B689A421AD1264BD9
:100D700000221A70224B9B7CDBB2214A43F00A030B
:100D8000DBB293741D4AFB69002142F823103B69D2
:100D90005B69002B26D03B695B693A699269104612
:100DA00098471FE0164B9B7CDBB2154A43F00203C9
:100DB000DBB2937416E0124B01229A7412E00F4AD0
:100DC000FB69002142F823103B695B69002B09D0C5
:100DD0003B695B693A6992691046984702E000BF37
:100DE00000E000BFFB690133FB61FB690B2B7FF661
:100DF0006CAF00BF00BF2037BD4680BD900B002008
:100E000000100B40C00B0020F00B002090B587B005
:100E100000AF786000237B6114E101227B6902FA54
:100E200003F3FB607A68FB681340002B00F0FC8042
:100E3000894A7B6952F82330002B00F0F780864AFC
:100E40007B6952F82330BB60844B7A69D2B29A73C3
:100E50007B69002B30D1814B9B7CDBB203F001031B
:100E6000002B00F0E5807D4B1B8B9BB2002B10D13B
:100E7000794A7B69002142F82310BB685B69002B2B
:100E800000F0D880BB685B69BA68926910469847E1
:100E9000D0E0724B1B8B9BB23B61BB689A68BB680E
:100EA000DB68D31A3A699A424ED9BB689A68BB6824
:100EB000DB68D31A3B6147E0684B9B7DDBB203F0F4
:100EC0000103002B00F0B880644B1B8B9BB2002BFE
:100ED00028D1614A7B69002142F823105F4B9B7D3A
:100EE000DBB25E4A23F00103DBB293755B4B1B89D7
:100EF0009BB21AB201217B6901FA03F31BB2DB43F7
:100F00001BB213401AB2554B92B21A81BB685B698F
:100F1000002B00F09380BB685B69BA689269104649
:100F200098478BE04D4B1B8B9BB23B61BB689A682B
:100F3000BB68DB68D31A3A699A4205D9BB689A68DC
:100F4000BB68DB68D31A3B61BB685A68BB68DB6867
:100F5000D4187869FFF742FB03463A6919462046E0
:100F6000FFF782FBBB68DA683B691A44BB68DA604A
:100F70007B69002B26D1BB68DA68BB689B689A4204
:100F800017D1364B9B7CDBB2344A43F04803DBB2CB
:100F90009374314A7B69002142F82310BB685B6976
:100FA000002B4CD0BB685B69BA68926910469847C1
:100FB00045E02A4B9B7CDBB2284A43F04003DBB27E
:100FC00093743CE0254B9B7DDBB2244A23F0010364
:100FD000DBB29375BB681B7F012B05D0BB68DA6859
:100FE000BB689B689A422AD11B4A7B69002142F860
:100FF00023101A4B1B899BB21AB201217B6901FA9B
:1010000003F31BB2DB431BB213401AB2134B92B271
:101010001A81BB685B69002B11D0BB685B69BA6839
:101020009269104698470AE000BF08E000BF06E05A
:1010300000BF04E000BF02E000BF00E000BF7B692A
:1010400001337B617B690B2B7FF6E7AE00BF00BFEE
:101050001C37BD4690BD00BF900B002000100B4018
:1010600080B58AB000AF78600023BB618C4B9B7B5E
:10107000DBB27B618A4B9B7ADAB2894BDB7ADBB2DB
:101080001340DBB23B61864B5B889AB2844BDB88B2
:101090009BB213409BB27B62814B9B889AB2804B80
:1010A0001B899BB213409BB23B627D4BD3F89824C3
:1010B0007B4BD3F89C341340FB60794AFB68C2F841
:1010C00098343B6903F00803002B14BF012300236D
:1010D000D9B27A68137861F3000313707A681378D1
:1010E0006FF3410313703B6903F00803002B14BF37
:1010F00001230023D9B27A68137861F38203137055
:101100003B6903F00403002B14BF01230023D9B271
:101110007A68137861F3C30313703B6903F001032A
:10112000002B14BF01230023D9B27A68137861F32E
:1011300004131370FB6803F00203002B14BF012398
:101140000023D9B27A68137861F345131370FB68F2
:1011500003F00103002B14BF01230023D9B27A68E6
:10116000137861F3861313703B6903F00403002BBB
:1011700014BF01230023D9B27A68137861F3C7132F
:1011800013707A6853786FF3000353707B6A03F02F
:101190000103002B59D0424B00229A73404B9B7C99
:1011A000DBB203F00403002B10D03D4B9B7CDBB281
:1011B0003B4A23F00403DBB293747B6A23F0010300
:1011C0007B62384B00221A700123BB61344B9B7C3D
:1011D000DBB203F01003002B13D0314B9B7CDBB24E
:1011E0002F4A63F07F03DBB293742E4B00221A70F8
:1011F0007B6A23F001037B620020FFF7A3FC01233D
:10120000BB61BB69002B20D1264B1B78002B10D172
:10121000234B9B7CDBB203F00103002B09D07A68DF
:10122000537843F0010353707B6A23F001037B6220
:101230000BE01C4B1B78022B07D17B6A23F00103C8
:101240007B623B6A43F001033B627B681B7803F0DF
:101250000803DBB2002B10D0124B00221A700023BF
:10126000FB6106E0FB691846FFF76CFCFB69013384
:10127000FB61FB690B2BF5DD0FE07B6A002B02D0D5
:10128000786AFFF71BFD3B6A002B02D0386AFFF734
:10129000BDFD034B7A69D2B29A732837BD4680BD33
:1012A00000100B40F00B002080B483B000AF034669
:1012B000FB71FB79082B02D94FF0FF3354E0FB7927
:1012C000023B062B4ED801A252F823F0E91200107F
:1012D000FB1200100D1300105313001041130010E7
:1012E000651300102F130010224BDB7ADBB2214A6A
:1012F00043F00803DBB2D37235E01E4BDB7ADBB27E
:101300001C4A43F00403DBB2D3722CE0194B5B7828
:10131000DBB2184A43F00103DBB25370154BDB7AA2
:10132000DBB2144A43F00103DBB2D3721BE0114B72
:10133000DB889BB20F4A43F001039BB2D38012E0DB
:101340000C4BD3F89C340B4A43F00103C2F89C3495
:1013500009E0084BD3F89C34064A43F00203C2F874
:101360009C3400E000BF002318460C37BD465DF8F2
:10137000047B704700100B4080B483B000AF03467D
:10138000FB71FB79082B02D94FF0FF3354E0FB7956
:10139000023B062B4ED801A252F823F0B9130010DD
:1013A000CB130010DD1300102314001011140010D3
:1013B00035140010FF130010224BDB7ADBB2214AF8
:1013C00023F00803DBB2D37235E01E4BDB7ADBB2CD
:1013D0001C4A23F00403DBB2D3722CE0194BDB7AF6
:1013E000DBB2184A23F00103DBB2D372154B5B78F2
:1013F000DBB2144A23F00103DBB253701BE0114B44
:10140000DB889BB20F4A23F001039BB2D38012E02A
:101410000C4BD3F89C340B4A23F00103C2F89C34E4
:1014200009E0084BD3F89C34064A23F00203C2F8C3
:101430009C3400E000BF002318460C37BD465DF821
:10144000047B704700100B4080B483B000AF0346AC
:10145000FB71002318460C37BD465DF8047B7047CE
:1014600080B584B000AF78603A4BFB60FFF792F82C
:10147000394B00229A737B68002B06D0364B9B7C3D
:10148000DBB203F00103002B04D1FFF795F84FF016
:10149000FF335BE0FB681B78DAB27B681A70FB688D
:1014A0001B78DAB27B685A70FB681B78DBB29AB2A1
:1014B0007B685A80FB681B78DBB219027B685A880C
:1014C0008BB213449AB27B685A80FB681B78DBB2FC
:1014D0009AB27B689A80FB681B78DBB219027B6842
:1014E0009A888BB213449AB27B689A80FB681B7807
:1014F000DBB29AB27B68DA80FB681B78DBB2190238
:101500007B68DA888BB213449AB27B68DA807B6896
:10151000DB88002B14D0104B9B7CDBB20E4A43F0CF
:101520004003DBB293747B681B785BB2002B03DA59
:101530000A4B03221A7006E0084B02221A7002E0DE
:10154000064B01221A70FFF737F8002318461037B0
:10155000BD4680BD20100B4000100B40F00B00205A
:1015600080B483B000AF78607B687F2B02D94FF0E6
:10157000FF3304E0054B7A68D2B21A700023184694
:101580000C37BD465DF8047B704700BF00100B4070
:1015900080B582B000AF78607B681B680B2B02D9E6
:1015A0004FF0FF331FE07B681B68114A52F823306D
:1015B0007A689A4202D04FF0FF3314E07B681B68D0
:1015C0000B4A002142F823107B684FF0FF321A616A
:1015D0007B685B69002B05D07B685B697A689269E0
:1015E00010469847002318460837BD4680BD00BF07
:1015F000900B002080B586B000AF78607B681B68D8
:101600003B617B689B687B613B690B2B02D94FF088
:10161000FF3372E03869FFF79BF90346002B02D1D4
:101620004FF0FF3369E0FEF7B5FF364B3A69D2B2AF
:101630009A73354A3B6952F82330002B06D1314B5F
:101640009B7CDBB203F00103002B04D0FEF7B4FF58
:101650004FF0FF3351E02C493B697A6841F8232071
:101660007B6800221A610023FB60FB68002B41D1DC
:10167000264A3B6952F823307A699A4204D9234AB0
:101680003B6952F823307B611F4A3B6952F8233093
:101690007A69DA603869FEF7A1FF7B685B687A696E
:1016A0001946FEF7AFFF3B69002B20D1164A3B6974
:1016B00052F82330DA6814493B6951F823309B68AB
:1016C0009A420BD1124B00221A700E4B9B7CDBB25C
:1016D0000C4A43F00A03DBB293740BE0094B9B7C8A
:1016E000DBB2084A43F00203DBB2937402E0054B1D
:1016F00001229A74FEF760FF002318461837BD4692
:1017000080BD00BF00100B40900B0020C00B0020DC
:10171000F00B002090B587B000AF78607B681B6845
:101720003B613B690B2B02D94FF0FF33ABE0FEF777
:1017300031FF3869FFF70CF90346002B04D1FEF79F
:101740003BFF4FF0FF339EE03869FFF7BDF90346DA
:10175000002B04D0FEF730FF4FF0FF3393E04C4AEC
:101760003B6952F82330002B04D0FEF725FF4FF0E1
:10177000FF3388E07B6800221A617B680022DA6010
:1017800043493B697A6841F82320424B3A69D2B217
:101790009A733B69002B73D00023FB60FB68002B1E
:1017A0006ED13C4B9B7DDBB203F00103002B59D083
:1017B000384B1B8B9BB27B617B689A687B68DB68CC
:1017C000D31A7A699A4205D97B689A687B68DB6884
:1017D000D31A7B617B685A687B68DB68D4183869E8
:1017E000FEF7FCFE03467A6919462046FEF73CFFE9
:1017F0007B68DA687B691A447B68DA60254B9B7DDD
:10180000DBB2244A23F00103DBB293757B681B7FB4
:10181000012B05D07B68DA687B689B689A4212D1FD
:10182000FEF7CAFE1A4A3B69002142F823107B6882
:101830005B69002B05D07B685B697A68926910460A
:10184000984700231FE0134B1B899BB21AB201215A
:101850003B6901FA03F31BB213431AB20D4B92B268
:101860001A810DE00B4B1B899BB21AB201213B6917
:1018700001FA03F31BB213431AB2064B92B21A8158
:10188000FEF79AFE002318461C37BD4690BD00BFE8
:10189000900B002000100B4080B584B000AF0346D1
:1018A000B9607A60FB73FB7B082B02D8BB68002B06
:1018B00002D14FF0FF330FE0FB7B0949BA6841F8D2
:1018C0003320FB7B064ADB0013447A685A60FB7BBB
:1018D0001846FFF7E9FC034618461037BD4680BDA1
:1018E000080C002080B584B000AF0346FB714FF0B8
:1018F000FF33FB60FB79082B02D94FF0FF3310E078
:10190000FB791846FFF738FDF860FB79074A00219C
:1019100042F83310FB79054ADB00134400225A6079
:10192000FB6818461037BD4680BD00BF080C00207C
:1019300080B582B000AF0346FB71FB79082B02D95A
:101940004FF0FF3304E0FB791846FFF77DFD0346B7
:1019500018460837BD4680BD80B500AF5348FFF735
:101960007FFB524B1B7803F02003DBB2002B0AD025
:101970004F4B9B6A002B06D04D4B9B6A4C4AD26A58
:10198000114605209847494B1B7803F04003DBB212
:10199000002B0AD0464B1B6B002B06D0444B1B6B15
:1019A000434A526B114606209847404B1B7803F080
:1019B0000803DBB2002B0AD03D4B9B69002B06D0FD
:1019C0003B4B9B693A4AD269114603209847374BF3
:1019D0001B7823F07F03DBB2002B0AD0344B9B6BC8
:1019E000002B06D0324B9B6B314AD26B114607203D
:1019F00098472E4B1B7803F00103DBB2002B0AD073
:101A00002B4B1B68002B06D0294B1B68284A5268B9
:101A1000114600209847254B1B7803F00203DBB2E8
:101A2000002B0AD0224B9B68002B06D0204B9B68D2
:101A30001F4AD2681146012098471C4B1B7803F0BF
:101A40000403DBB2002B0AD0194B1B69002B06D014
:101A5000174B1B69164A5269114602209847134BCF
:101A60001B7803F01003DBB2002B0AD0104B1B6A6B
:101A7000002B06D00E4B1B6A0D4A526A11460420F9
:101A800098470A4B5B7803F00103DBB2002B0AD0C6
:101A9000074B1B6C002B06D0054B1B6C044A526C89
:101AA00011460820984700BF80BD00BF040C0020ED
:101AB000080C002080B582B000AF7860104B002287
:101AC0001A70104B00221A700F4B00221A7010224D
:101AD00000210E480BF0D4FA0D4A0E49002000F008
:101AE000F1FC7B689A780C4B1A7000220B4900209D
:101AF00000F0C6FC034618460837BD4680BD00BF4F
:101B0000580C0020590C00205A0C0020980E002080
:101B1000AC0E0020A80E00205B0C0020F11F00106E
:101B200080B483B000AF03463960FB71FB79032BAF
:101B300002D94FF0FF3305E0FB7905493A6841F8D7
:101B40002320002318460C37BD465DF8047B704700
:101B5000980E002080B584B000AF7860574B00220B
:101B60001A60574B00221A607B685B88402B07D8AD
:101B70007B68DB88402B03D87B685B89402B02D9CC
:101B80004FF0FF3395E07B681A784E4B1A704D4B3F
:101B90001B7818467B685B881A460121FEF762FEB7
:101BA000F860FB68002B03D000F0ACF8FB6880E025
:101BB0007B681A79444B1A70434B1B7818467B6834
:101BC000DB881A460221FEF74DFEF860FB68002B09
:101BD00003D000F097F8FB686BE07B681A7A3B4B08
:101BE0001A703A4B1B7818467B685B891A460221AB
:101BF000FEF738FEF860FB68002B03D000F082F897
:101C0000FB6856E081223249324800F059FB242219
:101C1000002131480BF034FA2B4B1B781A462E4B1F
:101C20001A602D4B2D4A5A602B4B2D4A5A612A4B74
:101C3000294A9A61284B01221A77812229492A4888
:101C400000F03EFB2422002128480BF019FA1D4B1E
:101C50001B781A46254B1A60244B254A5A60234BA1
:101C600040229A60214B234A5A61204B1F4A9A61B5
:101C70001E4B01221A77242200211F480BF000FA84
:101C8000124B1B781A461C4B1A601C4B1A781C4BC3
:101C90001A71194B1A4A5A60174B0A229A60164B4E
:101CA00000225A61144B00229A61134B00221A77CA
:101CB000002318461037BD4680BD00BF500C0020E1
:101CC000540C0020580C0020590C00205A0C002005
:101CD000E40C0020680D0020800C0020A40C0020E3
:101CE000591F0010E00D0020640E00207C0D002024
:101CF000A00D0020391F0010740E00205B0C002086
:101D00001400002080B500AF1A48FFF741FC1A4BC1
:101D10001B78002B07D0184B1B781846FEF712FFD4
:101D2000154B00221A70154B1B78002B07D0134B54
:101D30001B781846FEF706FF104B00221A70104B56
:101D40001B78002B07D00E4B1B781846FEF7FAFEC7
:101D50000B4B00221A700B4800F032FB0A4800F0CF
:101D60002FFB0A4B00221A60094B00221A60002345
:101D7000184680BD7C0D0020580C0020590C002016
:101D80005A0C0020680D0020640E0020500C00202A
:101D9000540C002080B400AF034B1B681846BD46AE
:101DA0005DF8047B704700BF500C002080B584B004
:101DB00000AF786039600023FB601FE0144B1B68A4
:101DC000002B02D06FF001031DE0124B1B68002BAB
:101DD00001D1002317E000F055F807F10B03194675
:101DE0000D4800F0C0FA0346002BE7D17A68FB6883
:101DF0001344FA7A1A70FB680133FB60FA683B6897
:101E00009A42EAD3FB6818461037BD4680BD00BF32
:101E1000540C0020500C0020640E002080B584B0CB
:101E200000AF786039600023FB6018E07A68FB68D7
:101E300013441B781946114800F05CFA0346002B46
:101E400006D1FB680133FB603B68013B3B6006E069
:101E50000B4B9B68002B02D1094800F07DF83B68D2
:101E6000002BE3D1064B9B68002B02D1044800F005
:101E700073F8FB6818461037BD4680BD680D00201A
:101E8000800C002080B582B000AF00237B60234B24
:101E90001B68002B34D015E0214B5B681B7819467A
:101EA000204800F027FA0346002B10D101237B6065
:101EB0001B4B5B6801331A4A5360194BDB68013BCB
:101EC000174AD360164BDB68002BE5D100E000BF5A
:101ED000134BDB68002B13D1134B1B78002B0FD057
:101EE000124B1B68002B0BD00C4B00221A600C4BC2
:101EF00000221A610A4B0E4A5A600948FFF70AFC91
:101F00007B68002B06D00B4BDB68002B02D0094B03
:101F1000DB68984700BF0837BD4680BD780D0020BC
:101F20007C0D0020640E0020580C0020500C002076
:101F3000A00D0020980E002080B582B000AF786020
:101F4000044B01221A60FFF79DFF00BF0837BD4612
:101F500080BD00BF780D002080B584B000AF7860F0
:101F60001F4B1B69002B30D11E4B1B78002B2CD034
:101F70001D4800F037FA0346002B26D10023FB60F2
:101F800011E007F10B031946174800F0ECF903467E
:101F9000002B0CD1F97A154AFB6813440A461A70D3
:101FA000FB680133FB60FB683F2BEAD900E000BF10
:101FB0000B4B0E4A5A60FB68094A9360084B00229B
:101FC000DA600748FFF716FB06E0054B00229A602F
:101FD000034B00221A6100BF00BF1037BD4680BD11
:101FE000800C0020590C0020680D0020A40C00205B
:101FF00080B584B000AF786039604FF0FF33FB608C
:102000007B681B7803F01F03012B6AD17B689A88D9
:102010003C4B1B789BB29A4263D17B685B78203B38
:10202000032B58D801A252F823F000BF3D20001026
:102030004F20001061200010BB20001000F0A0F81D
:10204000F860FB68002B48D10123FB6045E000F0FD
:10205000D3F8F860FB68002B41D10123FB603EE020
:102060007B685B8803F00103002B16D02648FFF73E
:10207000C1FA264B00221A60254B264A5A60244892
:10208000FFF748FB244B01221A60244B1B68002BEE
:1020900010D0224B1B6898470CE01F4B00221A609F
:1020A0001B48FFF775FA1D4B5B68002B02D01B4BDA
:1020B0005B6898470023FB6012E07B685B88002B1D
:1020C00003D0174B01221A6002E0154B00221A6060
:1020D0000023FB6004E000BF0FE000BF0DE000BF85
:1020E0000BE0104B1B68002B07D00E4B1B680E4AF1
:1020F0001268114678689847F860FB6818461037F0
:10210000BD4680BD5B0C0020740E0020780D0020C1
:102110007C0D0020A00D0020500C0020980E002007
:10212000540C0020A80E0020AC0E002080B584B016
:1021300000AF78600023FB607B68BB60BB681B69F5
:10214000002B13D10D4B9B68002B03D00B4B9B68CE
:102150009847F860FB68B3F1FF3F03D10020FEF71A
:102160000DFC06E00020FEF777FD02E00020FEF700
:1021700005FC00BF1037BD4680BD00BF980E002093
:1021800080B500AF242200210D480AF079FF0C4BE6
:1021900000221A600A4B0B4A5A60094B07229A60C8
:1021A000074B094A5A61064B054A9A61044B0022C3
:1021B0001A770348FFF7AEFA0346184680BD00BF02
:1021C0005C0C00200C0000202D21001080B584B094
:1021D00000AF78607B68FB60FB681B69002B03D154
:1021E0000020FEF739FD02E00020FEF7C7FB00BF2C
:1021F0001037BD4680BD000080B500AF242200210D
:102200000D480AF03DFF0C4B00221A600A4B0B4AA6
:102210005A60094B07229A60074B094A5A61064BDC
:10222000054A9A61044B00221A770348FFF7E2F946
:102230000346184680BD00BF5C0C00200C00002047
:10224000CD21001080B483B000AFEFF310833B606A
:102250003B687B607B68002B0CBF01230023DBB253
:102260001A46044B1A6000BF0C37BD465DF8047B6C
:10227000704700BF2000002080B500AFFFF7E2FFED
:10228000054B1B68002B01D072B600BF024B012228
:102290005A6000BF80BD00BF2000002080B500AFA5
:1022A000064B1B68002B01D062B600BF034B002217
:1022B0005A60FFF7C7FF00BF80BD00BF20000020AD
:1022C00080B584B000AFF860B9607A60FFF7D4FFE2
:1022D000FB6800229A60FB680022DA60FB68BA683B
:1022E0005A60FB687A681A60FFF7D8FF00BF1037A2
:1022F000BD4680BD80B582B000AF78600B46FB70F4
:102300007B68DA687B689B68013B9A420AD07B68ED
:102310009B68002B09D17B68DA687B681B68013BEE
:102320009A4202D14FF0FF3319E0FFF7A5FF7B6817
:102330005A687B68DB681344FA781A707B68DB683C
:102340005A1C7B68DA607B68DA687B681B689A4293
:1023500002D17B680022DA60FFF7A0FF0023184655
:102360000837BD4680BD80B582B000AF7860396067
:102370007B689A687B68DB689A4202D14FF0FF3332
:102380001AE0FFF779FF7B685A687B689B68134403
:102390001A783B681A707B689B685A1C7B689A6045
:1023A0007B689A687B681B689A4202D17B6800222E
:1023B0009A60FFF773FF002318460837BD4680BDBB
:1023C00080B582B000AF7860FFF756FF7B680022CF
:1023D0009A607B680022DA60FFF760FF00BF083771
:1023E000BD4680BD80B483B000AF78607B689A68DA
:1023F0007B68DB689A420CBF01230023DBB21846DE
:102400000C37BD465DF8047B704780B584B000AFE3
:1024100078607B68FB60FB681B69002B03D10020A0
:10242000FEF71AFC02E00020FEF7A8FA24220021A1
:10243000F8680AF025FE00BF1037BD4680BD0000D9
:1024400080B500AF3822002109480AF019FE282281
:10245000002108480AF014FE074B00221A700022DF
:1024600006490820FFF718FA0346184680BD00BF4A
:10247000B00E0020180F0020400F00208125001012
:1024800080B485B000AF0346B9607A60FB73FB7B14
:10249000062B02D94FF0FF330BE0FB7B0849BA68EB
:1024A00041F83320FB7B064ADB0013447A685A600C
:1024B000002318461437BD465DF8047B704700BF03
:1024C000B00E002080B485B000AF0346B9607A60DA
:1024D000FB73FB7B062B02D94FF0FF330DE0FB7B38
:1024E000094A52F83320BB681A60FB7B064ADB00BE
:1024F00013445A687B681A60002318461437BD4697
:102500005DF8047B704700BFB00E002080B483B03C
:1025100000AF03463960FB711346BB71FB79042B96
:1025200002D8BB79052B02D94FF0FF331DE0FB79B0
:10253000032B01D80023BB71FA79BB7913440E49F0
:102540003A6841F82320FB79012B0DD10A4B5B68D7
:10255000DB7903F04003002B06D0084B1B7843F0D7
:102560000103DAB2054B1A70002318460C37BD463A
:102570005DF8047B704700BF180F0020400F00205B
:1025800080B586B000AF03463960FB7107F10C03DC
:102590001846FEF765FF0346002B02DA4FF0FF33C3
:1025A00050E02A4B5B68002B03D04FF0FF337B6178
:1025B0003AE03B7B03F06003402B1FD0402B2FDC25
:1025C000002B02D0202B07D02AE007F10C0318467D
:1025D00000F040F8786127E01D4B1B68002B09D004
:1025E0001B4B1B681A4A516807F10C0210469847AA
:1025F000786119E04FF0FF337B6115E0144B9B6865
:10260000002B09D0124B9B68114AD16807F10C02CC
:1026100010469847786107E04FF0FF337B6103E095
:102620004FF0FF337B6100BF7B69002B09DC7B69C6
:10263000002B03D10020FEF70FFB02E00020FEF785
:102640009DF97B6918461837BD4680BDF40E002001
:10265000B00E002080B584B000AF78607B685B78F6
:102660000C2B54D801A252F823F000BFA126001071
:10267000AB2600100F270010B52600100F27001002
:10268000BF260010CD260010D7260010DF26001030
:10269000E9260010F3260010FD2600100727001081
:1026A000786800F03DF8F86035E0786800F0B2F83E
:1026B000F86030E0786800F027F9F8602BE07B687C
:1026C0005B881846FEF74CFFF86024E0786800F05D
:1026D00099F9F8601FE04FF0FF33FB601BE078686A
:1026E00000F098FAF86016E0786800F0CBFAF8602D
:1026F00011E0786800F0F4FAF8600CE0786800F017
:102700003DFBF86007E04FF0FF33FB6003E04FF064
:10271000FF33FB6000BFFB6818461037BD4680BD25
:10272000B0B584B000AF78607B685B88002B0DD1BA
:102730007B68DB88022B09D17B681B7803F01F03C1
:10274000002B06D17B689B88002B02D04FF0FF3313
:1027500053E07B681B7803F01F03022B19D17B68C1
:102760009B8803F00F031846FEF7AEF9F860FB688C
:10277000002B01DAFB6840E0FB68002BCCBF012393
:102780000023DBB21A461F4B1A701E4B00225A70F0
:1027900019E07B681B7803F01F03012B06D1194B4E
:1027A00000221A70174B00225A700CE07B681B78CD
:1027B00003F01F03002B06D1134B1A78114B1A702C
:1027C000104B00225A70114A114B14461D460FCD72
:1027D0000FC40FCD0FC42B6823600C4B094A5A60FD
:1027E0000A4B02229A600948FEF704FFF860FB6872
:1027F000002B01D10123FB60FB6818461037BD4652
:10280000B0BD00BFF00E0020400F0020F40E0020ED
:102810006845011080B584B000AF78607B681B7894
:102820005BB2002B17DB7B68DB88002B13D17B6846
:102830005B88002B05D17B681B7803F01F03022BFC
:1028400009D17B685B88012B08D17B681B7803F07A
:102850001F03002B02D04FF0FF334CE07B685B88F6
:10286000002B10D17B689B88002B0CD07B689B8849
:1028700003F00F031846FEF7E3F8F860FB68002B3F
:1028800038DAFB6837E07B685B88012B19D11C4B79
:102890001B6B002B12D01A4B1B6B002178689847DA
:1028A000F860FB68002B01DAFB6824E0154B1B780D
:1028B00023F00203DAB2134B1A701BE04FF0FF3320
:1028C00019E07B685B88022B11D10D4B1B6B002B31
:1028D0000AD00B4B1B6B002178689847F860FB68A7
:1028E000002B07DAFB6806E04FF0FF3303E04FF000
:1028F000FF3300E0002318461037BD4680BD00BFFF
:10290000B00E0020400F002080B584B000AF78608A
:102910007B68DB88002B1DD17B685B88002B05D191
:102920007B681B7803F01F03022B13D17B685B8845
:10293000012B05D17B681B7803F01F03002B09D105
:102940007B685B88022B08D17B681B7803F01F0330
:10295000002B02D04FF0FF334CE07B685B88002BEC
:1029600010D17B689B88002B0CD07B689B8803F080
:102970000F031846FEF702F8F860FB68002B38DA00
:10298000FB6837E07B685B88012B19D11B4B9B6A86
:10299000002B12D0194B9B6A002178689847F86089
:1029A000FB68002B01DAFB6824E0154B1B7843F031
:1029B0000203DAB2124B1A701BE04FF0FF3319E03A
:1029C0007B685B88022B11D10C4B9B6A002B0AD0D1
:1029D0000A4B9B6A002178689847F860FB68002BD7
:1029E00007DAFB6806E04FF0FF3303E04FF0FF33F8
:1029F00000E0002318461037BD4680BDB00E002011
:102A0000400F0020B0B586B000AF786000233B6176
:102A10000023FB817B685B881B0A9BB2013B062B72
:102A200000F2AC8001A252F823F000BF492A001046
:102A30007F2A0010C72A00107D2B00107D2B00106C
:102A4000FD2A0010332B00107B681B7803F01F0356
:102A5000002B03D17B689B88002B02D00023FB81D5
:102A6000A1E0684B1B683B613B69002B02D100234E
:102A7000FB8198E03B691B789BB2FB8193E07B680C
:102A80001B7803F01F03002B03D17B689B88002B6E
:102A900002D00023FB8186E05A4B5B683B613B69B7
:102AA000002B02D10023FB817DE03B6903331B78BF
:102AB0009BB21B029AB23B6902331B789BB2134450
:102AC0009BB2FB816FE07B681B7803F01F03002B38
:102AD00053D17B685B88DBB2052B0CDC7B685B88A1
:102AE000DBB20433474A52F823303B613B691B7821
:102AF0009BB2FB8157E00023FB8154E07B681B788D
:102B000003F01F03002B03D17B689B88002B02D0AE
:102B10000023FB8147E03B4BDB683B613B69002BBB
:102B200002D10023FB813EE03B691B789BB2FB8115
:102B300039E07B681B7803F01F03002B03D17B680F
:102B40009B88002B02D00023FB812CE02D4B9B683F
:102B50003B613B69002B02D10023FB8123E03B69F1
:102B600003331B789BB21B029AB23B6902331B787A
:102B70009BB213449BB2FB8115E000BF224B1B6844
:102B8000002B0DD0204B1B6807F10E0207F110013E
:102B9000786898473B69002B04D10023FB8101E052
:102BA0000023FB8100BF7B68DA88FB899A4202D24E
:102BB0007B68DB88FB81FB89002B03D14FF0FF335F
:102BC0007B6114E0114A124B14461D460FCD0FC411
:102BD0000FCD0FC42B6823603B690C4A5360FB89FF
:102BE0001A460A4B9A600948FEF704FD78617B6932
:102BF000002B01D101237B617B6918461837BD4644
:102C0000B0BD00BF180F0020E80E0020F40E002019
:102C100068450110B0B584B000AF78607B685B8810
:102C2000002B07D17B689B88002B03D17B68DB8856
:102C3000012B02D04FF0FF3319E00F4A0F4B14461F
:102C40001D460FCD0FC40FCD0FC42B6823600A4B58
:102C50000B4A5A60084B01229A600748FEF7CAFCEB
:102C6000F860FB68002B01D10123FB60FB6818466C
:102C70001037BD46B0BD00BFF40E002068450110FE
:102C8000EC0E002080B582B000AF78607B689B8836
:102C9000002B03D17B68DB88002B02D04FF0FF3381
:102CA00016E00D4B1B69002B0CD00B4B1B690A4A1D
:102CB00052691146786898470346002B02DA4FF0B4
:102CC000FF3305E07B685B88DAB2044B1A7000239F
:102CD00018460837BD4680BDB00E0020EC0E00201F
:102CE000B0B584B000AF78607B685B88002B03D1FF
:102CF0007B68DB88012B02D04FF0FF3332E01B4BA7
:102D00001B6A002B11D0194B1B6A184A526A1146D4
:102D100078689847F860FB68002B01DAFB6821E0CF
:102D2000FB68DAB2124B1A7002E0114B00221A70E3
:102D3000104A114B14461D460FCD0FC40FCD0FC4C2
:102D40002B6823600B4B0A4A5A600A4B01229A6097
:102D50000848FEF74FFCF860FB68002B01D1012307
:102D6000FB60FB6818461037BD46B0BDB00E0020B2
:102D7000F00E0020F40E00206845011080B582B0EE
:102D800000AF78607B68DB88002B02D04FF0FF3308
:102D900018E00E4B9B69002B0CD00C4B9B690B4A27
:102DA000D2691146786898470346002B09DA4FF03C
:102DB000FF3307E07B685B88002B02D04FF0FF33C6
:102DC00000E0002318460837BD4680BDB00E002045
:102DD00080B400AF034B00221A7000BFBD465DF8FF
:102DE000047B7047EC0E002080B582B000AF7860A5
:102DF0007B68002B43DB7B680F2B40DC23497A6820
:102E000013469B0013449B000B441B68002B36D0D9
:102E100001211F4801F09AFF0346002B02D06FF0FA
:102E200005032EE019497A6813469B0013449B0062
:102E30000B4400221A6015497A6813469B0013441C
:102E40009B000B440C331B6800221A600F497A6800
:102E500013469B0013449B000B440C3319680B482A
:102E60007A6813469B0013449B0003440C331B6891
:102E70004A685A60064801F090FF002301E06FF0B5
:102E8000020318460837BD4680BD00BF440F00202E
:102E90008410002080B485B000AF7860134B1B789D
:102EA000002B1CD10023FB6013E00023BB600AE071
:102EB0000F49FB685A01BB681344002241F82320E4
:102EC000BB680133BB60BB681F2BF1DDFB680133BE
:102ED000FB60FB68012BE8DD044B01221A70002324
:102EE00018461437BD465DF8047B704788110020F2
:102EF0008810002080B582B000AF78607B6803F056
:102F00000103002B02D0002001F081FF7B6803F059
:102F10000203002B02D0012001F079FF7868FFF74F
:102F2000B9FF034618460837BD4680BD80B584B05A
:102F300000AF78607B681B68FB607B68197A7B68F0
:102F40005B681A46F86800F04DF9B860BB68002B62
:102F500001D0BB6895E07B685B7A042B00F285802A
:102F600001A252F823F000BF7D2F0010D32F0010D4
:102F7000393000109F2F001005300010FB681A6ECA
:102F80007B685B68DB431A40FB681A66FB685A6E15
:102F90007B685B68DB431A40FB685A6668E0FB6845
:102FA0001A6E7B685B681A43FB681A66FB685A6E88
:102FB0007B685B68DB431A40FB685A66FB68D3F8A2
:102FC000B8207B685B68DB431A40FB68C3F8B82015
:102FD0004EE0FB681A6E7B685B681A43FB681A66F2
:102FE000FB685A6E7B685B68DB431A40FB685A6675
:102FF000FB68D3F8B8207B685B681A43FB68C3F8AA
:10300000B82035E0FB681A6E7B685B68DB431A40CA
:10301000FB681A66FB685A6E7B685B681A43FB683C
:103020005A66FB68D3F8B8207B685B68DB431A40BC
:10303000FB68C3F8B8201BE0FB681A6E7B685B680E
:10304000DB431A40FB681A66FB685A6E7B685B6854
:103050001A43FB685A66FB68D3F8B8207B685B6844
:103060001A43FB68C3F8B82002E06FF0020308E0DF
:103070007B68997A7B685B681A46F86800F03CF8D0
:10308000034618461037BD4680BD00BF80B582B0EC
:1030900000AF786039603968786800F03FF803461F
:1030A00018460837BD4680BD80B582B000AF786055
:1030B00039603968786800F040F800BF0837BD46CD
:1030C00080BD80B582B000AF7860396039687868BB
:1030D00000F041F800BF0837BD4680BD80B582B022
:1030E00000AF786039603968786800F042F80346CC
:1030F00018460837BD4680BD80B584B000AFF86083
:103100000B467A60FB72FB7A7A681946F86800F021
:103110003FF8034618461037BD4680BD80B483B0E3
:1031200000AF786039607B685A6A3B681340184684
:103130000C37BD465DF8047B704780B483B000AFA8
:10314000786039607B683A68DA6100BF0C37BD4649
:103150005DF8047B704780B483B000AF786039605D
:103160007B683A681A6200BF0C37BD465DF8047B85
:10317000704780B483B000AF786039607B689A692B
:103180003B68134018460C37BD465DF8047B70471A
:1031900080B485B000AFF8600B467A60FB72FB7AB2
:1031A000002B02D0012B0AD012E0FB68D3F8C0201C
:1031B0007B68DB431A40FB68C3F8C0200BE0FB6868
:1031C000D3F8C0207B681A43FB68C3F8C02002E034
:1031D0006FF0020300E0002318461437BD465DF887
:1031E000047B704780B485B000AFF8600B467A600E
:1031F000FB72FB681A6B7B681A43FB681A63FB68F7
:103200007A685A60FB7A052B68D801A252F823F03D
:10321000293200104B3200106D320010893200103C
:10322000A5320010C1320010FB687A685A61FB6851
:103230007A685A60FB687A681A67FB687A68DA67A6
:10324000FB687A68C3F888204BE0FB687A681A61EB
:10325000FB687A685A60FB687A681A67FB687A6864
:10326000DA67FB687A68C3F888203AE0FB687A6816
:10327000C3F88820FB687A68DA67FB687A681A679F
:10328000FB687A689A602CE0FB687A68C3F888204B
:10329000FB687A68DA67FB687A68DA66FB687A68DE
:1032A0009A601EE0FB687A68C3F88820FB687A6839
:1032B0009A67FB687A681A67FB687A689A6010E018
:1032C000FB687A68C3F88820FB687A689A67FB68AD
:1032D0007A68DA66FB687A689A6002E06FF0020347
:1032E00000E0002318461437BD465DF8047B7047A4
:1032F00080B582B000AF7860786800F035F803469A
:1033000018460837BD4680BD80B584B000AFF86070
:10331000B9607A607A68B968F86800F043F80346E3
:1033200018461037BD4680BD80B584B000AFF86048
:10333000B9607A607A68B968F86800F05EF80346A8
:1033400018461037BD4680BD80B582B000AF7860AA
:10335000044B1B681946786800F082FC00BF0837F0
:10336000BD4680BD2800002080B483B000AF7860E7
:103370007B68002B02D14FF0FF330DE07B681B6BA5
:1033800043F004027B681A6300BF7B681B6B03F089
:103390000403002BF9D1002318460C37BD465DF815
:1033A000047B704780B487B000AFF860B9607A6082
:1033B00000237B61FB68002B02D0BB68002B0BD184
:1033C0004FF0FF3313E0FB68D96A7B695A1C7A61BE
:1033D000BA681344CAB21A707A687B699A4205D9EE
:1033E000FB685B6803F00203002BECD07B69184696
:1033F0001C37BD465DF8047B704780B487B000AFD2
:10340000F860B9607A6000237B61FB68002B02D012
:10341000BB68002B0CD14FF0FF3314E07B695A1CC2
:103420007A61BA6813441B78DBB21A46FB68DA6229
:103430007A687B699A4205D9FB685B6803F01003E0
:10344000002BEBD07B6918461C37BD465DF8047B2A
:10345000704780B483B000AF78607B68DB6943F06D
:1034600080027B68DA6100BF7B68DB6903F0800360
:10347000002BF9D100BF00BF0C37BD465DF8047BBF
:10348000704780B483B000AF78607B685B6A43F0BC
:1034900080027B685A6200BF7B685B6A03F080032E
:1034A000002BF9D100BF00BF0C37BD465DF8047B8F
:1034B000704780B485B000AFF860B9607A60FB688F
:1034C000BA689A60FB687A681A6100BF1437BD4613
:1034D0005DF8047B7047000080B584B000AF786071
:1034E00039607B681C4A934223D07B681B4A934215
:1034F0001DD07B681A4A934217D07B68194A9342C1
:1035000010D07B68184A934209D07B68174A9342CF
:1035100002D148F202030DE04FF0FF330AE048F217
:10352000010307E04FF4004304E0022302E001231B
:1035300000E000230E4A52F82330FB60FB68DB6991
:10354000002B04D0FB68DB693968F868984700BF36
:103550001037BD4680BD00BF00D0014000E00140F3
:1035600000F0014000D0114000E0114000F0114097
:103570008C11002080B483B000AF78607B6800229B
:10358000DA607B6800225A617B689A687B689A607F
:103590007B681A697B681A617B68194A934223D059
:1035A0007B68184A93421DD07B68174A934217D014
:1035B0007B68164A934210D07B68154A934209D023
:1035C0007B68144A934202D148F202030DE04FF0A7
:1035D000FF330AE048F2010307E04FF4004304E040
:1035E000022302E0012300E000230B4A002142F8FD
:1035F000231000BF0C37BD465DF8047B704700BF49
:1036000000D0014000E0014000F0014000D0114036
:1036100000E0114000F011408C11002080B586B010
:1036200000AF78608F4A7B6852F823307B618E4A06
:103630007B6852F823303B617B68002B1FD07B688E
:10364000012B1AD07B68022B15D07B68B3F5004F95
:103650000FD07B6848F20102934208D07B6848F2A1
:103660000202934201D1814B0AE0002308E0804B23
:1036700006E0804B04E0804B02E0804B00E0804B92
:10368000FB60804A7B6852F82330BB60FB689B6814
:1036900003F4FE43002B19D0FB689A68FB689A601C
:1036A000FB681A69FB681A61FB680022DA60FB6834
:1036B00000225A61F868FFF71BFE6FF00801F868F6
:1036C000FFF70AFFF868FFF755FF01E1BB68DB6809
:1036D0007A699A4243D2FB689B6803F02003002B6F
:1036E00013D0BB689A687B69D118BB68DA687B69BC
:1036F000D31A1A46F868FFF717FE03461A467B6985
:1037000013447B61FB6820229A60BB68DB687A699E
:103710009A4206D2FB68DB6843F02002FB68DA605D
:1037200005E0FB68DB6823F02002FB68DA60BB6819
:10373000DB687A699A4212D1BB685B69002B0ED0B4
:10374000FB681B6B43F00202FB681A63FB680122F3
:103750009A60FB68DB6843F00102FB68DA60BB68D3
:103760005B693A699A4219D2FB689B6803F01103BE
:10377000002B13D0BB681A693B69D118BB685A6922
:103780003B69D31A1A46F868FFF7BEFD03461A468E
:103790003B6913443B61FB6810229A60BB68DB689D
:1037A0007A699A423AD1BB685B693A699A4235D0E4
:1037B000FB689B6803F00103002B2FD0FB680122FC
:1037C0009A603B69002B06D1BB685B685B0043F0E5
:1037D0000102FB68DA62BB685A693B69D31AB3F528
:1037E000807F03D9FB6800221A6205E0BB685A6932
:1037F0003B69D21AFB681A62BB685B693A699A42F4
:1038000006D2FB68DB6843F01102FB68DA6005E072
:10381000FB68DB6823F01102FB68DA60BB68DB68D9
:103820007A699A424AD1BB685B693A699A4245D142
:10383000FB680022DA60FB6800225A61FB689A6824
:10384000FB689A60FB681A69FB681A61BB689B6930
:10385000002B19D0FB681B6B43F00202FB681A6354
:1038600018E000BF98110020A411002000F01140C2
:1038700000E0114000D0114000F0014000E00140A4
:1038800000D001408C110020FB681B6B43F0040248
:10389000FB681A63FB689B6803F4FE43002B05D0AA
:1038A0006FF00801F868FFF717FE03E00021F868E1
:1038B000FFF712FEF868FFF75DFE09E006497B6836
:1038C0007A6941F8232005497B683A6941F8232049
:1038D0001837BD4680BD00BF98110020A4110020FC
:1038E00080B586B000AFF860B9607A603B60FB6875
:1038F0009B687B613B6800221A607B6903F4FE438E
:10390000002B4BD03B686FF008021A60BB68002B9D
:1039100004D0BB683A680421F868984707226FF022
:103920007F41F868FFF7C5FDF868FFF7AAFDF86862
:10393000FFF78FFD7B6800221A607B68043300224A
:103940001A60FB687E4A934223D0FB687D4A93420B
:103950001DD0FB687C4A934217D0FB687B4A934298
:1039600010D0FB687A4A934209D0FB68794A9342A7
:1039700002D148F202030DE04FF0FF330AE048F2B3
:10398000010307E04FF4004304E0022302E00123B7
:1039900000E00023704A002142F823107B681B6876
:1039A00003F01003002B06D17B6804331B6803F07F
:1039B0000103002B20D07B6903F01003002B0AD0F9
:1039C000BB68002B04D0BB6800220221F86898472E
:1039D000FB6810229A60FB681B6903F00103002B4F
:1039E0000AD0BB68002B04D0BB6800220621F8680F
:1039F0009847FB6801221A617B681A6848F2200325
:103A00001340002B06D17B6804331B6803F00203CC
:103A1000002B68D07B6903F02003002B0AD0BB6821
:103A2000002B04D0BB6800220321F8689847FB688C
:103A300020229A60FB681B6903F00203002B0AD066
:103A4000BB68002B04D0BB6800220521F8689847AA
:103A5000FB6802221A617B6903F40043002B42D009
:103A60003B6800221A60BB68002B04D0BB683A6830
:103A70000421F8689847FB684FF400429A607B681D
:103A800000221A607B68043300221A60FB682C4A0B
:103A9000934223D0FB682B4A93421DD0FB682A4AED
:103AA000934217D0FB68294A934210D0FB68284AFA
:103AB000934209D0FB68274A934202D148F202039D
:103AC0000DE04FF0FF330AE048F2010307E04FF446
:103AD000004304E0022302E0012300E000231E4A29
:103AE000002142F823107B681B6803F00803002BB9
:103AF0004BD07B6903F00803002B46D0FB681B68A2
:103B000003F40063002B29D0BB68002B04D0BB68F2
:103B100000220121F8689847FB684FF480029A6000
:103B2000FB6808229A60FB684FF400429A607B6849
:103B30004FF621721A607B68043302221A6024E077
:103B400000D0014000E0014000F0014000D01140F1
:103B500000E0114000F011408C110020BB68002BE8
:103B600004D0BB6800220021F8689847FB684FF436
:103B700000029A60FB6808229A607B6847F611721F
:103B80001A607B68043301221A607B681B6803F0AB
:103B90000103002B52D07B6903F04003002B42D07D
:103BA0003B6800221A60BB68002B04D0BB683A68EF
:103BB0000421F8689847FB6840229A607B680022DD
:103BC0001A607B68043300221A60FB681D4A934226
:103BD00023D0FB681C4A93421DD0FB681B4A9342CA
:103BE00017D0FB681A4A934210D0FB68194A9342D7
:103BF00009D0FB68184A934202D148F202030DE053
:103C00004FF0FF330AE048F2010307E04FF40043AE
:103C100004E0022302E0012300E000230F4A002118
:103C200042F823100AE07B6903F00103002B05D062
:103C3000FB6801229A607B6808221A6000BF18376F
:103C4000BD4680BD00D0014000E0014000F00140D1
:103C500000D0114000E0114000F011408C11002014
:103C600080B588B000AF786039607B68294A93429C
:103C700023D07B68284A93421DD07B68274A934211
:103C800017D07B68264A934210D07B68254A93421E
:103C900009D07B68244A934202D148F202030DE026
:103CA0004FF0FF330AE048F2010307E04FF400430E
:103CB00004E0022302E0012300E00023FB61FB6932
:103CC000002B23DB7B681B6803F00203002B03D06F
:103CD000F869FFF7A3FC1AE0144AFB6952F8233095
:103CE000BB617B68DB68FB607B685B693B6107F1FC
:103CF000140307F10C02B9697868FFF7F1FDFA685F
:103D00007B68DA603A697B685A6100E000BF20375F
:103D1000BD4680BD00D0014000E0014000F0014000
:103D200000D0114000E0114000F011408C11002043
:103D300080B582B000AF78607968044800F044F83C
:103D4000034618460837BD4680BD00BF00600040EE
:103D500080B582B000AF78607968044800F059F807
:103D6000034618460837BD4680BD00BF00600040CE
:103D700080B500AF024800F072F80346184680BDD7
:103D80000060004080B582B000AF78607968044878
:103D900000F073F8034618460837BD4680BD00BFE3
:103DA0000060004080B400AF00BF064B1B6903F009
:103DB0000803002BF9D100BF00BFBD465DF8047BAE
:103DC000704700BF0060004080B582B000AF7860EF
:103DD00039603B6803F026033B603B68002B02D14F
:103DE0006FF0020311E0FFF7DDFF7B681A693B68A3
:103DF0001A437B681A613B6823F020033B603B68F1
:103E0000002B01D0FFF7CEFF002318460837BD4630
:103E100080BD80B582B000AF786039603B6803F048
:103E200026033B603B68002B02D16FF0020312E0D7
:103E3000FFF7B8FF7B681A693B68DB431A407B6871
:103E40001A613B6823F020033B603B68002B01D0E4
:103E5000FFF7A8FF002318460837BD4680BD80B491
:103E600083B000AF78607B681B6903F0D00318460D
:103E70000C37BD465DF8047B704780B483B000AF5B
:103E8000786039607B681B693A6802F0D002D243DF
:103E90001A407B681A61002318460C37BD465DF84E
:103EA000047B704780B588B002AFF860B9607A6073
:103EB0003B60FB68514A93420ED0FB68504A9342E4
:103EC00008D0FB684F4A934201D1022305E04FF02E
:103ED000FF3302E0012300E000237B613B68042BF9
:103EE00002DD6FF0020385E0474B1B685B087A6ACE
:103EF0009A4202D96FF002037CE0FB683F4A93428A
:103F00002AD14FF080435B6C4FF0804243F4007342
:103F1000536400BF4FF080435B6C03F40073002BCD
:103F2000F8D14FF080439B6C4FF0804223F48043E4
:103F3000936497F82830002B03D13448FEF7F6FF3E
:103F40004DE097F82830012B03D13148FEF7EEFF02
:103F500045E06FF002034DE0FB68294A93421BD114
:103F60004FF080435B684FF0804243F4005353604E
:103F700000BF4FF080435B6803F40053002BF8D17F
:103F80004FF080435B6A4FF0804223F0400353625E
:103F90002048FEF7CBFF22E0FB681A4A93421BD170
:103FA0004FF080435B684FF0804243F4804353609E
:103FB00000BF4FF080435B6803F48043002BF8D1CF
:103FC0004FF080435B6A4FF0804223F080035362DE
:103FD0001148FEF7ABFF02E06FF001030AE07B6AD5
:103FE00001933B6A00933B687A68B968F86800F00F
:103FF0003FF9034618461837BD4680BD00E00B4028
:104000000060044000700440000000208C45011056
:1040100098450110C8450110F845011080B584B0DD
:1040200000AF78607B68234A93420ED07B68224AB7
:10403000934208D07B68214A934201D1022305E0D4
:104040004FF0FF3302E0012300E00023FB607868BB
:1040500000F0FEF97B68174A934208D14FF0804385
:104060009B6C4FF0804243F4804393641CE07B6878
:10407000114A934208D14FF080435B6A4FF080426F
:1040800043F0400353620FE07B680C4A934208D12F
:104090004FF080435B6A4FF0804243F080035362ED
:1040A00002E06FF0030300E0002318461037BD461E
:1040B00080BD00BF00E00B40006004400070044081
:1040C00080B485B000AF78607B68224A93422DD1DE
:1040D0004FF080439B685B0A03F00703FB60FB68BB
:1040E000062B20D801A252F823F000BF1341001084
:1040F00027410010174100101B410010094100101A
:104100000D41001021410010134B1CE04FF4E1035E
:1041100019E0124B17E0124B15E04FF4FA5312E07E
:104120004FF400430FE06FF002030CE07B680D4A90
:10413000934203D07B680C4A934203D10B4B1B681C
:104140005B0800E0002318461437BD465DF8047B89
:10415000704700BF00E00B4000D8B805008793030C
:104160000048E801006004400070044000000020A6
:1041700080B582B000AF786039603968786800F047
:1041800025FA034618460837BD4680BD80B582B083
:1041900000AF786039603968786800F07FFA0346CC
:1041A00018460837BD4680BD80B582B000AF786044
:1041B000786800F0E5FA034618460837BD4680BD2A
:1041C00080B582B000AF78600B46FB70FB78194673
:1041D000786800F0EDFA034618460837BD4680BD02
:1041E00080B582B000AF78600B46FB70FB78194653
:1041F000786800F019FB034618460837BD4680BDB5
:1042000080B584B000AFF860B9607A607A68B96848
:10421000F86800F059FB034618461037BD4680BDCC
:1042200080B582B000AF7860786800F0AFFB0346DD
:1042300018460837BD4680BD80B584B000AFF86031
:10424000B9607A607A68B968F86800F0AEFB034636
:1042500018461037BD4680BD80B582B000AF78608B
:10426000786800F000FC034618460837BD4680BD5C
:1042700080B586B000AFF860B9607A603B60FB68DB
:104280006E4A93420ED0FB686D4A934208D0FB6899
:104290006C4A934201D1022305E04FF0FF3302E064
:1042A000012300E000237B617B69002B02DA6FF0C1
:1042B0000203BEE064497A6913469B001344DB00A5
:1042C0000B4400221A6060497A6913469B0013442C
:1042D000DB000B44083300221A605B497A691346FD
:1042E0009B001344DB000B440C3301221A60564937
:1042F0007A6913469B001344DB000B441033002201
:104300001A6051497A6913469B001344DB000B4441
:104310001C3300221A604C497A6913469B001344EF
:10432000DB000B44203300221A6047497A691346A8
:104330009B001344DB000B4414336FF001021A603E
:1043400041497A6913469B001344DB000B44183340
:104350006FF001021A603C497A6913469B001344CE
:10436000DB000B44273301221A70FB6801225A60DC
:10437000FB68364A1A61BB68002B06D0FB685B6895
:1043800043F00202FB685A6005E0FB685B6823F0BB
:104390000202FB685A60796AF868FFF7E9FE3B6A37
:1043A000FF2B02D96FF0020343E0FB68DA683B6A37
:1043B0001B041A43FB68DA60FB681A6AFB681A621E
:1043C00021497A6913469B001344DB000B442733D1
:1043D0001B78002B23D03B68012B05D1FB685B6861
:1043E00043F48032FB685A603B68022B05D1FB68BE
:1043F0005B6843F44032FB685A603B68032B05D18D
:10440000FB685B6843F4E022FB685A603B68042B5E
:1044100005D1FB685B6843F47022FB685A607B68D7
:10442000002B05D0FB68DB6843F40052FB68DA60C0
:10443000002318461837BD4680BD00BF00E00B4082
:104440000060044000700440B01100200101010030
:1044500080B584B000AF78607B68584A93420ED034
:104460007B68574A934208D07B68564A934201D1F1
:10447000022305E04FF0FF3302E0012300E00023B8
:10448000FB607B6800225A627B681A6A7B681A624A
:104490007B685B6823F001027B685A607B68DB699C
:1044A00023F040127B68DA614749FA6813469B00A3
:1044B0001344DB000B441B68002B2AD04249FA68E6
:1044C00013469B001344DB000B441B68BB60FA6877
:1044D00013469B001344DB003B4A1344184600F08C
:1044E0005CFC3949FA6813469B001344DB000B441B
:1044F0001B685B6A002B0CD03349FA6813469B009B
:104500001344DB000B441B685B6A6FF00E01B86854
:1045100098477B6800225A607B6800229A607B681B
:104520000022DA607B6800221A612749FA68134684
:104530009B001344DB000B4414331B68002B16DB79
:104540002149FA6813469B001344DB000B441433E3
:104550001B681846FEF748FC1B49FA6813469B0087
:104560001344DB000B4414336FF001021A60164948
:10457000FA6813469B001344DB000B4418331B6896
:10458000002B16DB1049FA6813469B001344DB002E
:104590000B4418331B681846FEF726FC0A49FA68D4
:1045A00013469B001344DB000B4418336FF00102E9
:1045B0001A60002318461037BD4680BD00E00B404E
:1045C0000060044000700440B011002080B586B047
:1045D00000AF78603960304B1B685B083A689A42DC
:1045E00002D96FF0020353E07868FFF769FD0346D4
:1045F000BB60BA683B68B2FBF3F3BB60BB685B08A7
:104600007B61BB685B083B610023FB60BB6803F018
:104610000103002B10D07B6901337B610CE07B69C7
:10462000DA0F13445B107B613B69DA0F13445B10B4
:104630003B61FB680133FB607B690F2B02DDFB688C
:10464000072BECDDFB68082B03D10F233B610F2305
:104650007B617B685B6923F0FF023B69DBB21A4335
:104660007B685A617B685B6923F47F427B691B022C
:104670009BB21A437B685A617B685B6923F47022A2
:10468000FB681B0403F470231A437B685A61002300
:1046900018461837BD4680BD0000002080B485B0A4
:1046A00000AF786039603B68012B02D03B68102B6B
:1046B00002DD6FF0020354E07B682D4A93420ED076
:1046C0007B682C4A934208D07B682B4A934201D1E5
:1046D000022305E04FF0FF3302E0012300E0002356
:1046E000FB607B681B6B03F00103002B37D1234970
:1046F000FA6813469B001344DB000B440C331B6821
:10470000012B2CD17B685B6823F001027B685A6027
:1047100039681A48FA6813469B001344DB000344C7
:10472000083319603B680F2B0BDC7B68DB6823F4D4
:1047300070623B681B0203F470631A437B68DA60A3
:1047400005E07B68DB6823F470627B68DA607B6875
:104750005B6843F001027B685A60002301E06FF060
:10476000060318461437BD465DF8047B704700BF4A
:1047700000E00B400060044000700440B0110020D5
:1047800080B483B000AF78607B68DB6803F470634B
:10479000002B01D1102304E07B68DB681B0A03F0C7
:1047A0000F0318460C37BD465DF8047B70470000C8
:1047B00080B483B000AF78600B46FB707B68DB6829
:1047C00023F430427B68DA60FB78032B24D801A203
:1047D00052F823F0E5470010F3470010FD470010A2
:1047E0000B4800107B68DB6843F400427B68DA60AA
:1047F00012E07B68DA687B68DA600DE07B68DB6872
:1048000043F480527B68DA6006E07B68DB6843F43F
:1048100000527B68DA6000BF002318460C37BD46A3
:104820005DF8047B704700BF80B483B000AF786050
:104830000B46FB70FB78032B3ED801A252F823F005
:10484000514800106B480010854800109F48001028
:104850007B68DB6823F001027B68DA607B68DB68D9
:1048600023F002027B68DA6027E07B68DB6843F0B4
:1048700001027B68DA607B68DB6823F002027B68F8
:10488000DA601AE07B68DB6823F001027B68DA609B
:104890007B68DB6843F002027B68DA600DE07B68CE
:1048A000DB6843F001027B68DA607B68DB6843F019
:1048B00002027B68DA6000E000BF002318460C3774
:1048C000BD465DF8047B704780B588B000AFF860E6
:1048D000B9607A60BB68002B02D07B68002B01D1E5
:1048E00000234FE0F868FFF79BFCB861F868FFF71A
:1048F0005BFC03467B617A68BB699A4201D9BB695C
:104900007B607B69082B03D97B6823F001037B6004
:104910000023FB6132E07B69082B23D97B68032BE2
:104920000CD9BA68FB691344FA6812681A607B688C
:10493000043B7B60FB690433FB610FE07B68012B68
:104940000CD9BA68FB691344FA68128892B21A80CB
:104950007B68023B7B60FB690233FB617B68012B58
:104960000CD10EE0FB695A1CFA61BA681344FA686C
:104970001278D2B21A707B68013B7B607B68002B97
:10498000C9D1FB6918462037BD4680BD80B483B0CD
:1049900000AF78607B68DB691B0E03F03F031846AD
:1049A0000C37BD465DF8047B704780B588B000AF1A
:1049B000F860B9607A60BB68002B02D07B68002B7E
:1049C00001D100234BE0F868FFF746FCB861F868B6
:1049D000FFF7EAFB03467B617A68BB699A4201D91B
:1049E000BB697B607B69082B03D97B6823F00103DB
:1049F0007B600023FB612EE07B69082B20D97B685C
:104A0000032B0CD9FB68B968FA690A4412681A606A
:104A10007B68043B7B60FB690433FB611BE07B68C4
:104A2000012B18D9FB68B968FA690A44128892B256
:104A30001A807B68023B7B60FB690233FB610AE002
:104A4000FB695A1CFA61BA6813441A78FB681A7039
:104A50007B68013B7B607B68002BCDD1FB691846EE
:104A60002037BD4680BD80B483B000AF78607B68DE
:104A7000DB691B0A03F03F03C3F1200318460C3720
:104A8000BD465DF8047B704780B500AF0F4B1B68D7
:104A900003F48033002B16D00D4B1B68002B05DD73
:104AA0000B4B1B68013B0A4A13600CE000F0F6F860
:104AB000084B1B68002B06D0064B1B68002098474C
:104AC000044B00221A6000BF80BD00BF10E000E070
:104AD0002C000020301200202DE9B04386B000AF3A
:104AE00078603649896879613449096821F48031F0
:104AF000334801603149096801F00101002911D1F1
:104B00002E496FF07F4048602C496FF07F408860ED
:104B10002A49052008606FF07F4179614FF080716C
:104B2000396103E02549496801313961796800201C
:104B3000884681462349096800200A46034602FB4D
:104B400009F008FB03F10144A8FB02454B191D467F
:104B50001D4A4FF000032046294606F041FE02465A
:104B60000B461346FB60FA683B69B2FBF3F31A4647
:104B7000164B1A60FB683A69B3FBF2F2396901FB24
:104B800002F29B1ABB60BA687B699A420CD30F4B46
:104B90001B6801330D4A13607A69BB68D21A3B69FE
:104BA00013440B4A136004E07A69BB68D31A084ABD
:104BB000136000BF1837BD46BDE8B08310E000E0C9
:104BC0002C1200200000002040420F002C0000208A
:104BD0002812002080B582B000AF78603960104A9A
:104BE0003B6813600F4B1B68002B02DD6FF0050361
:104BF00012E07B68002B01D100230DE07868FFF7FD
:104C00006BFF084B1B68002B05DD074B1B68064A32
:104C100043F002031360002318460837BD4680BDE9
:104C2000301200202C00002010E000E080B500AF22
:104C3000164B1B68002B0CDA154B1B68002B06D09B
:104C4000134B1B6800209847114B00221A60002369
:104C50001AE00E4B1B68002B14D10E4B9A680E4BBA
:104C60001B689A420ED800F019F8094B1B68002BFC
:104C700006D0074B1B6800209847054B00221A609E
:104C8000002301E06FF00503184680BD2C000020D2
:104C90003012002010E000E02812002080B500AFA4
:104CA0000A4B1B68002B07D0084B1B686FF00F00E6
:104CB0009847064B00221A60054A064B1B68136092
:104CC000054B4FF0FF321A6000BF80BD301200204C
:104CD00010E000E02C1200202C00002080B582B0F3
:104CE00000AF7860164B1B68002B02DD6FF00503E8
:104CF00021E07B68002B01D100231CE07868FFF7DE
:104D0000EBFE0AE00F4B1B6803F48033002B04D04A
:104D10000B4B1B68013B0A4A1360094B1B68002BB5
:104D2000F0DC00BF074B9A68074B1B689A42F9D822
:104D3000FFF7B4FF002318460837BD4680BD00BF0B
:104D40002C00002010E000E02812002080B489B080
:104D500000AF786039607B68FB61FB6953E8003F16
:104D6000BB61BB69002B02D06FF005030FE03B680D
:104D70007B617B683B6139697A6941E80023FB60AC
:104D8000FB68002BE7D1BFF35F8F00BF00231846FD
:104D90002437BD465DF8047B704780B483B000AF14
:104DA0007860BFF35F8F00BF7B6800221A6000BF8E
:104DB0000C37BD465DF8047B704780B483B000AF0C
:104DC0000346FB71FB791F2B0FD9FB79203BFB714D
:104DD0004FF080439B6CFA79012101FA02F21146EF
:104DE0004FF080420B4393640BE04FF080435B6ACB
:104DF000FA79012101FA02F211464FF080420B4389
:104E0000536200BF0C37BD465DF8047B704780B429
:104E100083B000AF0346FB71FB791F2B10D9FB79E0
:104E2000203BFB714FF080439B6CFA79012101FA22
:104E300002F2D24311464FF080420B4093640CE0E3
:104E40004FF080435B6AFA79012101FA02F2D24302
:104E500011464FF080420B40536200BF0C37BD46F5
:104E60005DF8047B704780B582B000AF78600021A8
:104E700041F28830FFF7AEFE4FF080439A687B68BE
:104E80001340002B03D0FFF709FF002307E0FFF7D3
:104E9000CDFE034613F1060FEED06FF0090318465E
:104EA0000837BD4680BD000080B584B000AF034622
:104EB000FB714FF080439B6803F46063FB60FB79F8
:104EC000062B00F2D68001A252F823F0794F001091
:104ED00073500010BD4F001015500010E94E001027
:104EE000314F00102B5000104FF080439B6803F4AB
:104EF0000023002B11D14FF080439B684FF080427C
:104F000043F4002393604FF00060FFF7ACFF0346CB
:104F1000002B02D06FF00903C7E04FF080439B687D
:104F200023F460634FF0804243F400639360A3E096
:104F30004FF080439B6803F48013002B11D14FF096
:104F400080439B684FF0804243F4801393604FF09E
:104F50008050FFF788FF0346002B02D06FF0090353
:104F6000A3E04FF080439B6823F460634FF08042DE
:104F700043F4206393607FE04FF080439B6803F429
:104F80008023002B11D14FF080439B684FF080426B
:104F900043F4802393604FF08060FFF764FF034683
:104FA000002B02D06FF009037FE04FF080439B6835
:104FB0004FF0804223F4606393605DE04FF08043E4
:104FC0009B6803F48033002B19D14FF080435B6F53
:104FD0004FF0804243F0110353674FF080439B68CA
:104FE0004FF0804243F4803393604FF08070FFF7BE
:104FF0003AFF0346002B02D06FF0090355E04FF053
:1050000080439B6823F460634FF0804243F48063E5
:10501000936031E04FF080439B6823F460634FF06E
:10502000804243F4C063936026E04FF080439B6866
:1050300003F40033002B11D14FF080439B684FF0F5
:10504000804243F4003393604FF00070FFF70BFF92
:105050000346002B02D06FF0090326E04FF0804397
:105060009B6823F460634FF0804243F44063936095
:1050700002E06FF0020318E04FF40050FFF7F3FE78
:105080000346002B0ED04FF080439B6823F46062F0
:10509000FB6803F460634FF0804113438B606FF053
:1050A000090302E0FBF7ECF8002318461037BD4671
:1050B00080BD00BF80B582B000AF7860786800F036
:1050C00004F800BF0837BD4680BD80B483B000AF90
:1050D00078607B680122DA6000BF0C37BD465DF85E
:1050E000047B704780B582B000AF78603960396862
:1050F000786800F067FB00BF0837BD4680BD80B50B
:1051000082B000AF786039603968786800F018FBC9
:1051100000BF0837BD4680BD80B582B000AF786063
:1051200039603968786800F0C9FA00BF0837BD46B1
:1051300080BD80B582B000AF7860786800F020FC58
:1051400000BF0837BD4680BD80B582B000AF786033
:10515000786800F09DFB00BF0837BD4680BD80B574
:1051600082B000AF7860786800F0CEFB00BF0837EF
:10517000BD4680BD80B584B000AFF860B9607A608C
:105180007A68B968F86800F091F803461846103755
:10519000BD4680BD80B582B000AF7860786800F011
:1051A000ABF8034618460837BD4680BD80B584B0CD
:1051B00000AFF860B9607A607A68B968F86800F0A2
:1051C000AAF8034618461037BD4680BD80B582B0A8
:1051D00000AF7860786800F0C4F8034618460837D6
:1051E000BD4680BD80B582B000AF78603960396857
:1051F000786800F0C9F8034618460837BD4680BDF8
:1052000080B582B000AF7860786800F0F1F80346AE
:1052100018460837BD4680BD80B582B000AF7860C3
:10522000786800F0F3F8034618460837BD4680BD9D
:1052300080B582B000AF786039603968786800F076
:10524000F1F800BF0837BD4680BD80B582B000AF21
:10525000786039603968786800F008F900BF08376D
:10526000BD4680BD80B582B000AF786039603968D6
:10527000786800F023F900BF0837BD4680BD80B5CF
:1052800082B000AF7860786800F040F903461846B5
:105290000837BD4680BD80B582B000AF78607868C1
:1052A00000F0BCFB00BF0837BD4680BD80B487B0AE
:1052B00000AFF860B9607A6000237B610FE0FB68A3
:1052C0009B6803F01003002B0ED1FB68D969BA6804
:1052D0007B691344CAB21A707B6901337B617A69B6
:1052E0007B689A42EBD300E000BF7B6918461C370D
:1052F000BD465DF8047B704780B483B000AF786032
:105300007B689B681B0A03F03F0318460C37BD46B9
:105310005DF8047B704780B487B000AFF860B96077
:105320007A6000237B610FE0FB689B6803F08003D9
:10533000002B0ED1BA687B6913441B781A46FB68B0
:10534000DA617B6901337B617A697B689A42EBD3CE
:1053500000E000BF7B6918461C37BD465DF8047B42
:10536000704780B485B000AF78607B689B681B0C89
:1053700003F03F03FB60FB68C3F1200318461437BA
:10538000BD465DF8047B704780B483B000AF7860A1
:1053900039607B68134A93420AD07B68124A934271
:1053A00006D07B68114A934202D06FF0020313E0EB
:1053B0003B68002B02D03B68202B02D96FF0020320
:1053C0000AE07B685B6823F03F023B6803F03F0321
:1053D0001A437B685A60002318460C37BD465DF8B7
:1053E000047B70470020044000300440004004402B
:1053F00080B483B000AF78607B685B6803F03F03E4
:1054000018460C37BD465DF8047B704780B483B006
:1054100000AF78607B681B6918460C37BD465DF8A5
:10542000047B704780B483B000AF786039607B68DC
:105430000B4A93420AD07B680A4A934206D07B68A3
:10544000094A934202D06FF0020303E07B683A6896
:105450001A61002318460C37BD465DF8047B70477F
:1054600000200440003004400040044080B483B079
:1054700000AF786039607B680D4A93420AD07B6840
:105480000C4A934206D07B680B4A934202D06FF0DD
:10549000020306E07B68DA683B681A437B68DA60DF
:1054A000002318460C37BD465DF8047B704700BFEB
:1054B00000200440003004400040044080B483B029
:1054C00000AF786039607B680D4A93420AD07B68F0
:1054D0000C4A934206D07B680B4A934202D06FF08D
:1054E000020307E07B68DA683B68DB431A407B68AD
:1054F000DA60002318460C37BD465DF8047B704720
:1055000000200440003004400040044080B584B0D6
:1055100000AF78607B681B68634A93420CD07B685D
:105520001B68624A934207D07B681B68604A9342BB
:1055300002D06FF00203B3E07B68DB68002B4BD036
:105540007B685B68002B02D16FF00203A8E07B68E8
:1055500000225A617B681B68534A934210D07B68D3
:105560001B68524A934209D07B681B68504A934299
:1055700001D1022305E04FF0FF3302E0012300E0F8
:1055800000234C497A6841F823207B681B6840213E
:105590001846FFF75AFE7B681B681846FFF716FE91
:1055A000F8607B68DA687B685B69D31AFA689342B3
:1055B00028BF1346FB607B6818687B685A687B6865
:1055C0005B691344FA681946FFF7F0FD02467B68F1
:1055D0005B691A447B685A617B681B69002B5ED04B
:1055E0007B689B68002B09D17B681B684FF0FF31FB
:1055F0001846FFF737FE6FF0020351E07B68002288
:105600009A617B681B68284A934210D07B681B68AC
:10561000264A934209D07B681B68254A934201D1F0
:10562000022305E04FF0FF3302E0012300E00023F6
:1056300021497A6841F823207B681B680B211846B2
:10564000FFF703FE7B681B6810211846FFF7FDFD7E
:105650007B681B681846FFF79DFDB8607B681A6978
:105660007B689B69D31ABA68934228BF1346BB6014
:105670007B6818687B689A687B689B691344BA6882
:105680001946FFF777FD02467B689B691A447B68E1
:105690009A617B681B6810211846FFF7C9FD00233B
:1056A00018461037BD4680BD00200440003004403D
:1056B00000400440341200204012002080B584B025
:1056C00000AF786039607B68194A93420AD07B68E2
:1056D000184A934206D07B68174A934202D06FF073
:1056E000020321E07B68124A93420ED07B68114A84
:1056F000934208D07B68104A934201D1022305E00F
:105700004FF0FF3302E0012300E000230B4A52F880
:105710002330FB60FB68DB69002B04D0FB68DB698E
:105720003968F8689847002318461037BD4680BD91
:10573000002004400030044000400440401200209B
:1057400080B584B000AF786039607B68194A9342B5
:105750000AD07B68184A934206D07B68174A934266
:1057600002D06FF0020321E07B68124A93420ED010
:105770007B68114A934208D07B68104A934201D15A
:10578000022305E04FF0FF3302E0012300E0002395
:105790000B4A52F82330FB60FB68DB69002B04D016
:1057A000FB68DB693968F8689847002318461037AA
:1057B000BD4680BD0020044000300440004004404D
:1057C0003412002080B586B000AF786039607B6805
:1057D0002A4A93420ED07B68294A934208D07B68BC
:1057E000284A934201D1022305E04FF0FF3302E043
:1057F000012300E00023244A52F823207B681F493C
:105800008B420ED07B681E498B4208D07B681D49B5
:105810008B4201D1022305E04FF0FF3302E0012368
:1058200000E00023194951F823309A4202D10123A4
:10583000FB7401E00023FB7439687868FFF780FF90
:10584000F860FB7C83F00103DBB2002B05D03968E4
:105850007868FFF733FF786101E000237B61FB6824
:10586000002B01D0FB6805E07B69002B01D07B6930
:1058700000E0002318461837BD4680BD00200440D4
:105880000030044000400440341200204012002048
:1058900080B582B000AF78607B68174A93420AD027
:1058A0007B68164A934206D07B68154A934202D021
:1058B0006FF002031CE040217868FFF7D3FC7B689F
:1058C0000D4A93420ED07B680C4A934208D07B6805
:1058D0000B4A934201D1022305E04FF0FF3302E06F
:1058E000012300E00023074A002142F8231000238F
:1058F00018460837BD4680BD0020044000300440F3
:10590000004004403412002080B582B000AF7860BF
:105910007B68174A93420AD07B68164A934206D0A6
:105920007B68154A934202D06FF002031CE01B21F2
:105930007868FFF797FC7B680D4A93420ED07B682E
:105940000C4A934208D07B680B4A934201D1022350
:1059500005E04FF0FF3302E0012300E00023074A97
:10596000002142F82310002318460837BD4680BDA9
:105970000020044000300440004004404012002059
:1059800080B584B000AF78607B681F4A93420AD02C
:105990007B681E4A934206D07B681D4A934202D020
:1059A0006FF002032BE07B68174A93420ED07B68AE
:1059B000164A934208D07B68154A934201D10223CC
:1059C00005E04FF0FF3302E0012300E00023FB601D
:1059D000104AFB6852F82330BB60BB68002B02D032
:1059E0007868FFF7B1FB0C4AFB6852F82330BB60C4
:1059F000BB68002B02D07868FFF7B1FB0023184684
:105A00001037BD4680BD00BF002004400030044078
:105A100000400440341200204012002090B589B0AC
:105A200000AF78607B68704A93420ED07B686F4A03
:105A3000934208D07B686E4A934201D1022305E06D
:105A40004FF0FF3302E0012300E00023FB617B689D
:105A5000654A93420AD07B68644A934206D07B68C9
:105A6000634A934202D06FF00203B8E07868FFF710
:105A7000D3FBB8617B68DA68BB69134003F00B03A2
:105A8000002B0AD06FF008017868FFF72BFB7868CD
:105A9000FFF74FFB6FF00303A1E0564AFB6952F892
:105AA00023307B61BB6903F04003002B2DD07B6961
:105AB000002B2AD07B69DB68002B26D07B691B6812
:105AC0001846FFF783FB38617B69DA687B695B699D
:105AD000D31A3A69934228BF13463B617B69186821
