:020000041000EA
:1000000000C00820B1FC0010EDFC0010EFFC001057
:10001000F1FC0010F3FC0010F5FC001000000000E3
:10002000000000000000000000000000F7FC0010CD
:100030000000000000000000F9FC0010E18B00103F
:10004000FDFC0010FFFC0010799C00101D9C0010AE
:1000500005FD00102D9A0010419A0010559A0010CD
:100060000DFD00100FFD001011FD001013FD00101C
:1000700015FD001099900010F1990010059A0010DC
:100080001DFD00101FFD001021FD001023FD0010BC
:1000900025FD001027FD001029FD00102BFD00108C
:1000A0002DFD00102FFD001031FD001033FD00105C
:1000B0003D9B00104B9B0010599B0010679B00104C
:1000C0003DFD00103FFD0010199A001043FD001087
:1000D000AD90001047FD001049FD00104BFD0010D1
:1000E0004DFD00104FFD001051FD001053FD00109C
:1000F00055FD001057FD001059FD00105BFD00106C
:100100005DFD00105FFD001061FD001063FD00103B
:1001100065FD001067FD001069FD00106BFD00100B
:100120006DFD00106FFD001071FD001073FD0010DB
:1001300075FD001077FD001079FD00107BFD0010AB
:100140007DFD00107FFD001081FD001083FD00107B
:10015000759B0010839B0010919B00109F9B0010CB
:10016000AD9B0010BB9B0010C99B0010D79B0010DB
:10017000E59B0010F39B0010019C00100F9C0010E9
:100180009DFD00109FFD0010A1FD0010A3FD0010BB
:10019000A5FD0010A7FD0010A9FD0010ABFD00108B
:1001A000ADFD0010AFFD0010B1FD0010B3FD00105B
:1001B000B5FD0010B7FD0010B9FD001010B5054CDD
:1001C000237833B9044B13B10448AFF30080012303
:1001D000237010BDA00B002000000000B47C0110B3
:1001E00008B5034B1BB103490348AFF3008008BDBA
:1001F00000000000A40B0020B47C011080B584B086
:1002000000AF7860124B1B68002B02D1104B114AD3
:100210001A600F4B1B68FB600D4B1A687B68134418
:100220001A460D4B9A4207D910F094FB03460C2254
:100230001A604FF0FF3306E0054B1A687B681344E1
:10024000034A1360FB6818461037BD4680BD00BFE7
:10025000BC0B00203814002000B0082080B400AF90
:100260006FF010031846BD465DF8047B704780B4FC
:1002700000AF6FF010031846BD465DF8047B704771
:1002800080B485B000AF4FF080439B6803F4606397
:10029000BB60BB68B3F5406F34D0BB68B3F5406F4B
:1002A00034D8BB68B3F5206F28D0BB68B3F5206F96
:1002B0002CD8BB68B3F5006F1DD0BB68B3F5006FD9
:1002C00024D8BB68B3F5C06F11D0BB68B3F5C06F5D
:1002D0001CD8BB68002B04D0BB68B3F5806F03D07B
:1002E00014E0154BFB6014E0144BFB6011E04FF47D
:1002F000FA53FB600DE0124BFB600AE04FF4E103A0
:10030000FB6006E04FF40043FB6002E00A4BFB6039
:1003100000BF4FF080439B689B0903F007037B609D
:10032000FA687B6822FA03F3064A136000BF1437A9
:10033000BD465DF8047B7047008793030048E801E1
:1003400000D8B8050000002080B483B000AF4FF0A3
:1003500080439B6803F4E0737B601F4B1B691E4A5C
:1003600043F0080313614FF080439B684FF08042D5
:1003700043F4E073936000BF184B1B6C03F0010360
:10038000002BF9D000BF154B1B6C03F00203002BB0
:10039000F9D000BF114B1B6C03F00403002BF9D004
:1003A0004FF080439B6823F4E0724FF080417B68FC
:1003B00013438B604FF080431B6823F440334FF0AE
:1003C000804243F400331360002318460C37BD46C7
:1003D0005DF8047B704700BF006C004000440040A3
:1003E00080B400AF00231846BD465DF8047B70471B
:1003F00080B400AF00BFBD465DF8047B70470000CD
:1004000080B500AF4C4B4D4A9A604D4B9B68302BEA
:1004100010D94B4B1B6C03F00203002B0AD04FF09A
:1004200080439B684FF0804223F4E0739360042084
:1004300005F010FC404BD3F888303F4A43F470037A
:10044000C2F88830BFF34F8F00BFBFF36F8F00BF7C
:100450003C4B3D4A43F0010393643C4B01221A603C
:100460003B4B40221A60394B00221A60394B012263
:10047000C3F8002700BF374BD3F8003103F48033B3
:10048000002BF8D0334BD3F80031324A43F001034C
:10049000C2F8003100BF2F4BD3F8003103F4803392
:1004A000002BF8D0FFF7ECFE002005F086FB0120C2
:1004B00005F083FB284BD3F8C030274B4FF0FF32B9
:1004C000C3F8C020244BD3F8B830234B4FF0FF3291
:1004D000C3F8B820204B1B6E1F4B4FF0FF321A663B
:1004E0001D4B5B6E1C4B00225A661C4BD3F8C03070
:1004F0001A4B4FF0FF32C3F8C020184BD3F8B83076
:10050000164B4FF0FF32C3F8B820144B1B6E134B41
:100510004FF0FF321A66114B5B6E104B00225A6689
:10052000094B1B68084A23F480631360FFF758FFE8
:10053000FFF75EFF00BF80BD00ED00E0000000108F
:1005400000440040B1FC001000680040000C004076
:100550000C04004000A002400080004000900040D9
:1005600080B483B000AFEFF310833B603B687B60E7
:100570007B68002B0CBF01230023DBB21A46044B1F
:100580001A6000BF0C37BD465DF8047B704700BFA2
:100590000400002080B500AFFFF7E2FF054B1B68A9
:1005A000002B01D072B600BF024B01225A6000BF7F
:1005B00080BD00BF0400002080B500AF064B1B6863
:1005C000002B01D062B600BF034B00225A60FFF738
:1005D000C7FF00BF80BD00BF0400002080B485B00D
:1005E00000AF7860064BFB607B689B00FA681344A1
:1005F000FB60FB6818461437BD465DF8047B704706
:1006000020100B4080B489B000AFF860B9607A6008
:10061000FB687B61BB68FB617B689B08BB617B6897
:1006200003F003037B6005E0FB691A1DFA611A6899
:100630007B691A60BB695A1EBA61002BF4D1FB6951
:10064000BB6005E0BB685A1CBA601A78FB681A7078
:100650007B685A1E7A60002BF4D100BF00BF24379C
:10066000BD465DF8047B704780B489B000AFF86088
:10067000B9607A60BB687B61FB68FB617B689B0843
:10068000BB617B6803F003037B6005E0FB691A1D17
:10069000FA617A6912681A60BB695A1EBA61002B46
:1006A000F4D1FB69FB6006E0FB685A1CFA60BA688B
:1006B0001278D2B21A707B685A1E7A60002BF3D17E
:1006C00000BF00BF2437BD465DF8047B70470000C3
:1006D00080B584B000AF78607B68002B05D0102215
:1006E0007968394810F034FC02E0374B00221A6078
:1006F000354B9B68002B08D0334B9B6898470346CB
:10070000002B02D04FF0FF3359E0304B40221A60EB
:100710000123FB6006E0FB68184600F013FAFB6853
:100720000133FB60FB680B2BF5DD294B00221A70AF
:10073000284B00225A70274B0022DA80254B0022DA
:100740001A81244B0022DA72224B0022C3F8A02423
:10075000204B40F60802C3F860241E4B0022C3F869
:1007600064241C4B4FF48072C3F86824194B002298
:10077000C3F86C24174B0122C3F81424154B012233
:10078000C3F81824134B0022C3F85C24114B002239
:10079000C3F848240F4B0222C3F84C240D4B01220E
:1007A000C3F830240B4B0122C3F83C24094B002230
:1007B000C3F81024074B0122C3F810240023184665
:1007C0001037BD4680BD00BF240C0020F00B002078
:1007D000200C002000100B4080B400AF124B1B68AF
:1007E000002B08D0114B5B78DBB2104A43F020039A
:1007F000DBB2537007E00D4B5B78DBB20B4A23F0A2
:100800002003DBB25370094B5B78DBB2074A43F03D
:100810004003DBB25370064B00221A7000231846C7
:10082000BD465DF8047B7047240C002000100B408F
:10083000200C002080B400AF084B5B78DBB2074A85
:1008400023F04003DBB25370054B00221A700023E3
:100850001846BD465DF8047B704700BF00100B4092
:10086000200C002080B584B000AFF8600B467A60A1
:10087000FB72FB68002B06D0FB680B2B03D87B6850
:10088000B3F5007F02D94FF0FF3358E0F86800F06D
:1008900059F9FFF77FFE2C4BFA68D2B29A73FB7AB4
:1008A000022B25D0022B41DC002B44D0012B3DD163
:1008B000254B80229A75244B0222DA75224B7A68E6
:1008C00092B29A822149FB687A6841F823201E4B34
:1008D0001B899BB21AB20121FB6801FA03F31BB218
:1008E000DB431BB213401AB2174B92B21A8123E0BA
:1008F000154B40229A74144B2222DA74124B7A68F8
:1009000092B21A821149FB687A6841F823200E4B93
:10091000DB889BB21AB20121FB6801FA03F31BB218
:1009200013431AB2084B92B2DA8005E0FFF744FE97
:100930004FF0FF3303E000BFFFF73EFE00231846F1
:100940001037BD4680BD00BF00100B40F00B0020EB
:1009500080B483B000AF7860074A7B6852F82330D8
:10096000002B14BF01230023DBB218460C37BD4611
:100970005DF8047B704700BFF00B002080B584B0A9
:1009800000AF78607868FFF7E3FF0346002B02D1E1
:100990004FF0FF334AE0FFF7FDFD264B7A68D2B2F5
:1009A0009A737B68002B0BD1224B9B7CDBB2214AD4
:1009B00043F06003DBB293741F4B00221A7017E000
:1009C0001C4BDB7CDBB203F02003002B08D0194B5F
:1009D0009B7CDBB2174A43F01003DBB2937407E051
:1009E000144B9B7DDBB2134A43F02003DBB29375BB
:1009F000124A7B6852F82330FB60104A7B68002162
:100A000042F82310FB68002B0DD0FB684FF0FF323B
:100A10001A61FB685B69002B05D0FB685B69FA68AB
:100A2000926910469847FFF7C7FD00231846103714
:100A3000BD4680BD00100B40200C0020C00B0020E4
:100A400080B582B000AF78607868FFF781FF034619
:100A5000002B02D14FF0FF332FE0FFF79BFD194B26
:100A60007A68D2B29A737B68002B23D0154BDB7C5B
:100A7000DBB203F02003002B0ED0124B9B7CDBB2C9
:100A800003F00103002B03D00E4B48229A7411E0AF
:100A90000C4B40229A740DE00A4B9B7DDBB203F0B5
:100AA0000103002B03D0074B90229A7502E0054BFF
:100AB00080229A75FFF780FD002318460837BD464F
:100AC00080BD00BF00100B4080B485B000AF7860DF
:100AD0001B4B7A68D2B29A737B68002B1ED0184BDE
:100AE000DB7CDBB203F02003002B0BD0144B9B7C90
:100AF000DBB203F01003002B14BF01230023DBB291
:100B0000FB6016E00E4B9B7DDBB203F02003002B55
:100B100014BF01230023DBB2FB600AE0084B9B7C7F
:100B2000DBB203F02003002B14BF01230023DBB250
:100B3000FB60FB6818461437BD465DF8047B7047C0
:100B400000100B4080B584B000AF78607B680B2B41
:100B500002D94FF0FF3374E0FFF71CFD3B4A7B687E
:100B600052F82330FB60394A7B68002142F8231099
:100B70007B68002B62D0364A7B68002142F8231044
:100B8000344B7A68D2B29A73324BDB889BB21AB27A
:100B900001217B6801FA03F31BB2DB431BB2134054
:100BA0001AB22C4B92B2DA802A4B1B899BB21AB232
:100BB00001217B6801FA03F31BB2DB431BB2134034
:100BC0001AB2244B92B21A81224B9B7CDBB203F007
:100BD0000103002B02D01F4B08229A741D4B1022D8
:100BE0009A741C4B0222DA741A4B00221A82194B97
:100BF0009B7DDBB203F00103002B02D0154B1022CA
:100C00009A75144B20229A75124B0222DA75114BF9
:100C100000229A82FFF7D0FCFB68002B10D0FB6803
:100C20004FF0FF321A61FB685B69002B08D0FB684C
:100C30005B69FA6892691046984701E0FFF7BCFCCF
:100C4000002318461037BD4680BD00BFC00B0020F2
:100C5000F00B002000100B4080B584B000AF78602E
:100C60007B68002B02D04FF0FF331EE0FFF792FCB1
:100C7000104B9B7BDBB2FB600E4B00229A730E4B3A
:100C80001B78012B07D10B4B9B7CDBB2094A43F04D
:100C90004803DBB29374084B00221A70054BFA68C4
:100CA000D2B29A73FFF788FC002318461037BD466E
:100CB00080BD00BF00100B40200C002080B588B024
:100CC00000AF78600023FB618FE00122FB6902FA2C
:100CD00003F37B617A687B691340002B7FD0474A1E
:100CE000FB6952F82330002B7BD0454BFA69D2B216
:100CF0009A73424AFB6952F823303B613B699A6818
:100D00003B69DB68D31AFB60FB68002B57D03D4A78
:100D1000FB6952F82330FA689A4205D3394AFB69D5
:100D200052F82330BB6101E0FB68BB61F869FFF753
:100D300055FC3B695A683B69DB681344BA6919463C
:100D4000FFF760FC3B69DA68BB691A443B69DA600B
:100D5000FB69002B2FD1294AFB6952F82330DA684E
:100D60002649FB6951F823309B689A421AD1264BD9
:100D700000221A70224B9B7CDBB2214A43F00A030B
:100D8000DBB293741D4AFB69002142F823103B69D2
:100D90005B69002B26D03B695B693A699269104612
:100DA00098471FE0164B9B7CDBB2154A43F00203C9
:100DB000DBB2937416E0124B01229A7412E00F4AD0
:100DC000FB69002142F823103B695B69002B09D0C5
:100DD0003B695B693A6992691046984702E000BF37
:100DE00000E000BFFB690133FB61FB690B2B7FF661
:100DF0006CAF00BF00BF2037BD4680BDC00B0020D8
:100E000000100B40F00B0020200C002090B587B0A4
:100E100000AF786000237B6114E101227B6902FA54
:100E200003F3FB607A68FB681340002B00F0FC8042
:100E3000894A7B6952F82330002B00F0F780864AFC
:100E40007B6952F82330BB60844B7A69D2B29A73C3
:100E50007B69002B30D1814B9B7CDBB203F001031B
:100E6000002B00F0E5807D4B1B8B9BB2002B10D13B
:100E7000794A7B69002142F82310BB685B69002B2B
:100E800000F0D880BB685B69BA68926910469847E1
:100E9000D0E0724B1B8B9BB23B61BB689A68BB680E
:100EA000DB68D31A3A699A424ED9BB689A68BB6824
:100EB000DB68D31A3B6147E0684B9B7DDBB203F0F4
:100EC0000103002B00F0B880644B1B8B9BB2002BFE
:100ED00028D1614A7B69002142F823105F4B9B7D3A
:100EE000DBB25E4A23F00103DBB293755B4B1B89D7
:100EF0009BB21AB201217B6901FA03F31BB2DB43F7
:100F00001BB213401AB2554B92B21A81BB685B698F
:100F1000002B00F09380BB685B69BA689269104649
:100F200098478BE04D4B1B8B9BB23B61BB689A682B
:100F3000BB68DB68D31A3A699A4205D9BB689A68DC
:100F4000BB68DB68D31A3B61BB685A68BB68DB6867
:100F5000D4187869FFF742FB03463A6919462046E0
:100F6000FFF782FBBB68DA683B691A44BB68DA604A
:100F70007B69002B26D1BB68DA68BB689B689A4204
:100F800017D1364B9B7CDBB2344A43F04803DBB2CB
:100F90009374314A7B69002142F82310BB685B6976
:100FA000002B4CD0BB685B69BA68926910469847C1
:100FB00045E02A4B9B7CDBB2284A43F04003DBB27E
:100FC00093743CE0254B9B7DDBB2244A23F0010364
:100FD000DBB29375BB681B7F012B05D0BB68DA6859
:100FE000BB689B689A422AD11B4A7B69002142F860
:100FF00023101A4B1B899BB21AB201217B6901FA9B
:1010000003F31BB2DB431BB213401AB2134B92B271
:101010001A81BB685B69002B11D0BB685B69BA6839
:101020009269104698470AE000BF08E000BF06E05A
:1010300000BF04E000BF02E000BF00E000BF7B692A
:1010400001337B617B690B2B7FF6E7AE00BF00BFEE
:101050001C37BD4690BD00BFC00B002000100B40E8
:1010600080B58AB000AF78600023BB618C4B9B7B5E
:10107000DBB27B618A4B9B7ADAB2894BDB7ADBB2DB
:101080001340DBB23B61864B5B889AB2844BDB88B2
:101090009BB213409BB27B62814B9B889AB2804B80
:1010A0001B899BB213409BB23B627D4BD3F89824C3
:1010B0007B4BD3F89C341340FB60794AFB68C2F841
:1010C00098343B6903F00803002B14BF012300236D
:1010D000D9B27A68137861F3000313707A681378D1
:1010E0006FF3410313703B6903F00803002B14BF37
:1010F00001230023D9B27A68137861F38203137055
:101100003B6903F00403002B14BF01230023D9B271
:101110007A68137861F3C30313703B6903F001032A
:10112000002B14BF01230023D9B27A68137861F32E
:1011300004131370FB6803F00203002B14BF012398
:101140000023D9B27A68137861F345131370FB68F2
:1011500003F00103002B14BF01230023D9B27A68E6
:10116000137861F3861313703B6903F00403002BBB
:1011700014BF01230023D9B27A68137861F3C7132F
:1011800013707A6853786FF3000353707B6A03F02F
:101190000103002B59D0424B00229A73404B9B7C99
:1011A000DBB203F00403002B10D03D4B9B7CDBB281
:1011B0003B4A23F00403DBB293747B6A23F0010300
:1011C0007B62384B00221A700123BB61344B9B7C3D
:1011D000DBB203F01003002B13D0314B9B7CDBB24E
:1011E0002F4A63F07F03DBB293742E4B00221A70F8
:1011F0007B6A23F001037B620020FFF7A3FC01233D
:10120000BB61BB69002B20D1264B1B78002B10D172
:10121000234B9B7CDBB203F00103002B09D07A68DF
:10122000537843F0010353707B6A23F001037B6220
:101230000BE01C4B1B78022B07D17B6A23F00103C8
:101240007B623B6A43F001033B627B681B7803F0DF
:101250000803DBB2002B10D0124B00221A700023BF
:10126000FB6106E0FB691846FFF76CFCFB69013384
:10127000FB61FB690B2BF5DD0FE07B6A002B02D0D5
:10128000786AFFF71BFD3B6A002B02D0386AFFF734
:10129000BDFD034B7A69D2B29A732837BD4680BD33
:1012A00000100B40200C002080B483B000AF034638
:1012B000FB71FB79082B02D94FF0FF3354E0FB7927
:1012C000023B062B4ED801A252F823F0E91200107F
:1012D000FB1200100D1300105313001041130010E7
:1012E000651300102F130010224BDB7ADBB2214A6A
:1012F00043F00803DBB2D37235E01E4BDB7ADBB27E
:101300001C4A43F00403DBB2D3722CE0194B5B7828
:10131000DBB2184A43F00103DBB25370154BDB7AA2
:10132000DBB2144A43F00103DBB2D3721BE0114B72
:10133000DB889BB20F4A43F001039BB2D38012E0DB
:101340000C4BD3F89C340B4A43F00103C2F89C3495
:1013500009E0084BD3F89C34064A43F00203C2F874
:101360009C3400E000BF002318460C37BD465DF8F2
:10137000047B704700100B4080B483B000AF03467D
:10138000FB71FB79082B02D94FF0FF3354E0FB7956
:10139000023B062B4ED801A252F823F0B9130010DD
:1013A000CB130010DD1300102314001011140010D3
:1013B00035140010FF130010224BDB7ADBB2214AF8
:1013C00023F00803DBB2D37235E01E4BDB7ADBB2CD
:1013D0001C4A23F00403DBB2D3722CE0194BDB7AF6
:1013E000DBB2184A23F00103DBB2D372154B5B78F2
:1013F000DBB2144A23F00103DBB253701BE0114B44
:10140000DB889BB20F4A23F001039BB2D38012E02A
:101410000C4BD3F89C340B4A23F00103C2F89C34E4
:1014200009E0084BD3F89C34064A23F00203C2F8C3
:101430009C3400E000BF002318460C37BD465DF821
:10144000047B704700100B4080B483B000AF0346AC
:10145000FB71002318460C37BD465DF8047B7047CE
:1014600080B584B000AF78603A4BFB60FFF792F82C
:10147000394B00229A737B68002B06D0364B9B7C3D
:10148000DBB203F00103002B04D1FFF795F84FF016
:10149000FF335BE0FB681B78DAB27B681A70FB688D
:1014A0001B78DAB27B685A70FB681B78DBB29AB2A1
:1014B0007B685A80FB681B78DBB219027B685A880C
:1014C0008BB213449AB27B685A80FB681B78DBB2FC
:1014D0009AB27B689A80FB681B78DBB219027B6842
:1014E0009A888BB213449AB27B689A80FB681B7807
:1014F000DBB29AB27B68DA80FB681B78DBB2190238
:101500007B68DA888BB213449AB27B68DA807B6896
:10151000DB88002B14D0104B9B7CDBB20E4A43F0CF
:101520004003DBB293747B681B785BB2002B03DA59
:101530000A4B03221A7006E0084B02221A7002E0DE
:10154000064B01221A70FFF737F8002318461037B0
:10155000BD4680BD20100B4000100B40200C002029
:1015600080B483B000AF78607B687F2B02D94FF0E6
:10157000FF3304E0054B7A68D2B21A700023184694
:101580000C37BD465DF8047B704700BF00100B4070
:1015900080B582B000AF78607B681B680B2B02D9E6
:1015A0004FF0FF331FE07B681B68114A52F823306D
:1015B0007A689A4202D04FF0FF3314E07B681B68D0
:1015C0000B4A002142F823107B684FF0FF321A616A
:1015D0007B685B69002B05D07B685B697A689269E0
:1015E00010469847002318460837BD4680BD00BF07
:1015F000C00B002080B586B000AF78607B681B68A8
:101600003B617B689B687B613B690B2B02D94FF088
:10161000FF3372E03869FFF79BF90346002B02D1D4
:101620004FF0FF3369E0FEF7B5FF364B3A69D2B2AF
:101630009A73354A3B6952F82330002B06D1314B5F
:101640009B7CDBB203F00103002B04D0FEF7B4FF58
:101650004FF0FF3351E02C493B697A6841F8232071
:101660007B6800221A610023FB60FB68002B41D1DC
:10167000264A3B6952F823307A699A4204D9234AB0
:101680003B6952F823307B611F4A3B6952F8233093
:101690007A69DA603869FEF7A1FF7B685B687A696E
:1016A0001946FEF7AFFF3B69002B20D1164A3B6974
:1016B00052F82330DA6814493B6951F823309B68AB
:1016C0009A420BD1124B00221A700E4B9B7CDBB25C
:1016D0000C4A43F00A03DBB293740BE0094B9B7C8A
:1016E000DBB2084A43F00203DBB2937402E0054B1D
:1016F00001229A74FEF760FF002318461837BD4692
:1017000080BD00BF00100B40C00B0020F00B00207C
:10171000200C002090B587B000AF78607B681B6814
:101720003B613B690B2B02D94FF0FF33ABE0FEF777
:1017300031FF3869FFF70CF90346002B04D1FEF79F
:101740003BFF4FF0FF339EE03869FFF7BDF90346DA
:10175000002B04D0FEF730FF4FF0FF3393E04C4AEC
:101760003B6952F82330002B04D0FEF725FF4FF0E1
:10177000FF3388E07B6800221A617B680022DA6010
:1017800043493B697A6841F82320424B3A69D2B217
:101790009A733B69002B73D00023FB60FB68002B1E
:1017A0006ED13C4B9B7DDBB203F00103002B59D083
:1017B000384B1B8B9BB27B617B689A687B68DB68CC
:1017C000D31A7A699A4205D97B689A687B68DB6884
:1017D000D31A7B617B685A687B68DB68D4183869E8
:1017E000FEF7FCFE03467A6919462046FEF73CFFE9
:1017F0007B68DA687B691A447B68DA60254B9B7DDD
:10180000DBB2244A23F00103DBB293757B681B7FB4
:10181000012B05D07B68DA687B689B689A4212D1FD
:10182000FEF7CAFE1A4A3B69002142F823107B6882
:101830005B69002B05D07B685B697A68926910460A
:10184000984700231FE0134B1B899BB21AB201215A
:101850003B6901FA03F31BB213431AB20D4B92B268
:101860001A810DE00B4B1B899BB21AB201213B6917
:1018700001FA03F31BB213431AB2064B92B21A8158
:10188000FEF79AFE002318461C37BD4690BD00BFE8
:10189000C00B002000100B4080B584B000AF0346A1
:1018A000B9607A60FB73FB7B082B02D8BB68002B06
:1018B00002D14FF0FF330FE0FB7B0949BA6841F8D2
:1018C0003320FB7B064ADB0013447A685A60FB7BBB
:1018D0001846FFF7E9FC034618461037BD4680BDA1
:1018E000380C002080B584B000AF0346FB714FF088
:1018F000FF33FB60FB79082B02D94FF0FF3310E078
:10190000FB791846FFF738FDF860FB79074A00219C
:1019100042F83310FB79054ADB00134400225A6079
:10192000FB6818461037BD4680BD00BF380C00204C
:1019300080B582B000AF0346FB71FB79082B02D95A
:101940004FF0FF3304E0FB791846FFF77DFD0346B7
:1019500018460837BD4680BD80B500AF5348FFF735
:101960007FFB524B1B7803F02003DBB2002B0AD025
:101970004F4B9B6A002B06D04D4B9B6A4C4AD26A58
:10198000114605209847494B1B7803F04003DBB212
:10199000002B0AD0464B1B6B002B06D0444B1B6B15
:1019A000434A526B114606209847404B1B7803F080
:1019B0000803DBB2002B0AD03D4B9B69002B06D0FD
:1019C0003B4B9B693A4AD269114603209847374BF3
:1019D0001B7823F07F03DBB2002B0AD0344B9B6BC8
:1019E000002B06D0324B9B6B314AD26B114607203D
:1019F00098472E4B1B7803F00103DBB2002B0AD073
:101A00002B4B1B68002B06D0294B1B68284A5268B9
:101A1000114600209847254B1B7803F00203DBB2E8
:101A2000002B0AD0224B9B68002B06D0204B9B68D2
:101A30001F4AD2681146012098471C4B1B7803F0BF
:101A40000403DBB2002B0AD0194B1B69002B06D014
:101A5000174B1B69164A5269114602209847134BCF
:101A60001B7803F01003DBB2002B0AD0104B1B6A6B
:101A7000002B06D00E4B1B6A0D4A526A11460420F9
:101A800098470A4B5B7803F00103DBB2002B0AD0C6
:101A9000074B1B6C002B06D0054B1B6C044A526C89
:101AA00011460820984700BF80BD00BF340C0020BD
:101AB000380C002080B582B000AF7860104B002257
:101AC0001A70104B00221A700F4B00221A7010224D
:101AD00000210E480FF0D6FA0D4A0E49002000F002
:101AE000F1FC7B689A780C4B1A7000220B4900209D
:101AF00000F0C6FC034618460837BD4680BD00BF4F
:101B0000880C0020890C00208A0C0020C80E0020C0
:101B1000DC0E0020D80E00208B0C0020F11F0010DE
:101B200080B483B000AF03463960FB71FB79032BAF
:101B300002D94FF0FF3305E0FB7905493A6841F8D7
:101B40002320002318460C37BD465DF8047B704700
:101B5000C80E002080B584B000AF7860574B0022DB
:101B60001A60574B00221A607B685B88402B07D8AD
:101B70007B68DB88402B03D87B685B89402B02D9CC
:101B80004FF0FF3395E07B681A784E4B1A704D4B3F
:101B90001B7818467B685B881A460121FEF762FEB7
:101BA000F860FB68002B03D000F0ACF8FB6880E025
:101BB0007B681A79444B1A70434B1B7818467B6834
:101BC000DB881A460221FEF74DFEF860FB68002B09
:101BD00003D000F097F8FB686BE07B681A7A3B4B08
:101BE0001A703A4B1B7818467B685B891A460221AB
:101BF000FEF738FEF860FB68002B03D000F082F897
:101C0000FB6856E081223249324800F059FB242219
:101C1000002131480FF036FA2B4B1B781A462E4B19
:101C20001A602D4B2D4A5A602B4B2D4A5A612A4B74
:101C3000294A9A61284B01221A77812229492A4888
:101C400000F03EFB2422002128480FF01BFA1D4B18
:101C50001B781A46254B1A60244B254A5A60234BA1
:101C600040229A60214B234A5A61204B1F4A9A61B5
:101C70001E4B01221A77242200211F480FF002FA7E
:101C8000124B1B781A461C4B1A601C4B1A781C4BC3
:101C90001A71194B1A4A5A60174B0A229A60164B4E
:101CA00000225A61144B00229A61134B00221A77CA
:101CB000002318461037BD4680BD00BF800C0020B1
:101CC000840C0020880C0020890C00208A0C002045
:101CD000140D0020980D0020B00C0020D40C002022
:101CE000591F0010100E0020940E0020AC0D002093
:101CF000D00D0020391F0010A40E00208B0C0020F6
:101D00001400002080B500AF1A48FFF741FC1A4BC1
:101D10001B78002B07D0184B1B781846FEF712FFD4
:101D2000154B00221A70154B1B78002B07D0134B54
:101D30001B781846FEF706FF104B00221A70104B56
:101D40001B78002B07D00E4B1B781846FEF7FAFEC7
:101D50000B4B00221A700B4800F032FB0A4800F0CF
:101D60002FFB0A4B00221A60094B00221A60002345
:101D7000184680BDAC0D0020880C0020890C002086
:101D80008A0C0020980D0020940E0020800C00206A
:101D9000840C002080B400AF034B1B681846BD467E
:101DA0005DF8047B704700BF800C002080B584B0D4
:101DB00000AF786039600023FB601FE0144B1B68A4
:101DC000002B02D06FF001031DE0124B1B68002BAB
:101DD00001D1002317E000F055F807F10B03194675
:101DE0000D4800F0C0FA0346002BE7D17A68FB6883
:101DF0001344FA7A1A70FB680133FB60FA683B6897
:101E00009A42EAD3FB6818461037BD4680BD00BF32
:101E1000840C0020800C0020940E002080B584B03B
:101E200000AF786039600023FB6018E07A68FB68D7
:101E300013441B781946114800F05CFA0346002B46
:101E400006D1FB680133FB603B68013B3B6006E069
:101E50000B4B9B68002B02D1094800F07DF83B68D2
:101E6000002BE3D1064B9B68002B02D1044800F005
:101E700073F8FB6818461037BD4680BD980D0020EA
:101E8000B00C002080B582B000AF00237B60234BF4
:101E90001B68002B34D015E0214B5B681B7819467A
:101EA000204800F027FA0346002B10D101237B6065
:101EB0001B4B5B6801331A4A5360194BDB68013BCB
:101EC000174AD360164BDB68002BE5D100E000BF5A
:101ED000134BDB68002B13D1134B1B78002B0FD057
:101EE000124B1B68002B0BD00C4B00221A600C4BC2
:101EF00000221A610A4B0E4A5A600948FFF70AFC91
:101F00007B68002B06D00B4BDB68002B02D0094B03
:101F1000DB68984700BF0837BD4680BDA80D00208C
:101F2000AC0D0020940E0020880C0020800C0020B6
:101F3000D00D0020C80E002080B582B000AF7860C0
:101F4000044B01221A60FFF79DFF00BF0837BD4612
:101F500080BD00BFA80D002080B584B000AF7860C0
:101F60001F4B1B69002B30D11E4B1B78002B2CD034
:101F70001D4800F037FA0346002B26D10023FB60F2
:101F800011E007F10B031946174800F0ECF903467E
:101F9000002B0CD1F97A154AFB6813440A461A70D3
:101FA000FB680133FB60FB683F2BEAD900E000BF10
:101FB0000B4B0E4A5A60FB68094A9360084B00229B
:101FC000DA600748FFF716FB06E0054B00229A602F
:101FD000034B00221A6100BF00BF1037BD4680BD11
:101FE000B00C0020890C0020980D0020D40C00209B
:101FF00080B584B000AF786039604FF0FF33FB608C
:102000007B681B7803F01F03012B6AD17B689A88D9
:102010003C4B1B789BB29A4263D17B685B78203B38
:10202000032B58D801A252F823F000BF3D20001026
:102030004F20001061200010BB20001000F0A0F81D
:10204000F860FB68002B48D10123FB6045E000F0FD
:10205000D3F8F860FB68002B41D10123FB603EE020
:102060007B685B8803F00103002B16D02648FFF73E
:10207000C1FA264B00221A60254B264A5A60244892
:10208000FFF748FB244B01221A60244B1B68002BEE
:1020900010D0224B1B6898470CE01F4B00221A609F
:1020A0001B48FFF775FA1D4B5B68002B02D01B4BDA
:1020B0005B6898470023FB6012E07B685B88002B1D
:1020C00003D0174B01221A6002E0154B00221A6060
:1020D0000023FB6004E000BF0FE000BF0DE000BF85
:1020E0000BE0104B1B68002B07D00E4B1B680E4AF1
:1020F0001268114678689847F860FB6818461037F0
:10210000BD4680BD8B0C0020A40E0020A80D002031
:10211000AC0D0020D00D0020800C0020C80E002047
:10212000840C0020D80E0020DC0E002080B584B086
:1021300000AF78600023FB607B68BB60BB681B69F5
:10214000002B13D10D4B9B68002B03D00B4B9B68CE
:102150009847F860FB68B3F1FF3F03D10020FEF71A
:102160000DFC06E00020FEF777FD02E00020FEF700
:1021700005FC00BF1037BD4680BD00BFC80E002063
:1021800080B500AF242200210D480EF07BFF0C4BE0
:1021900000221A600A4B0B4A5A60094B07229A60C8
:1021A000074B094A5A61064B054A9A61044B0022C3
:1021B0001A770348FFF7AEFA0346184680BD00BF02
:1021C0008C0C00200C0000202D21001080B584B064
:1021D00000AF78607B68FB60FB681B69002B03D154
:1021E0000020FEF739FD02E00020FEF7C7FB00BF2C
:1021F0001037BD4680BD000080B500AF242200210D
:102200000D480EF03FFF0C4B00221A600A4B0B4AA0
:102210005A60094B07229A60074B094A5A61064BDC
:10222000054A9A61044B00221A770348FFF7E2F946
:102230000346184680BD00BF8C0C00200C00002017
:10224000CD21001080B483B000AFEFF310833B606A
:102250003B687B607B68002B0CBF01230023DBB253
:102260001A46044B1A6000BF0C37BD465DF8047B6C
:10227000704700BF2000002080B500AFFFF7E2FFED
:10228000054B1B68002B01D072B600BF024B012228
:102290005A6000BF80BD00BF2000002080B500AFA5
:1022A000064B1B68002B01D062B600BF034B002217
:1022B0005A60FFF7C7FF00BF80BD00BF20000020AD
:1022C00080B584B000AFF860B9607A60FFF7D4FFE2
:1022D000FB6800229A60FB680022DA60FB68BA683B
:1022E0005A60FB687A681A60FFF7D8FF00BF1037A2
:1022F000BD4680BD80B582B000AF78600B46FB70F4
:102300007B68DA687B689B68013B9A420AD07B68ED
:102310009B68002B09D17B68DA687B681B68013BEE
:102320009A4202D14FF0FF3319E0FFF7A5FF7B6817
:102330005A687B68DB681344FA781A707B68DB683C
:102340005A1C7B68DA607B68DA687B681B689A4293
:1023500002D17B680022DA60FFF7A0FF0023184655
:102360000837BD4680BD80B582B000AF7860396067
:102370007B689A687B68DB689A4202D14FF0FF3332
:102380001AE0FFF779FF7B685A687B689B68134403
:102390001A783B681A707B689B685A1C7B689A6045
:1023A0007B689A687B681B689A4202D17B6800222E
:1023B0009A60FFF773FF002318460837BD4680BDBB
:1023C00080B582B000AF7860FFF756FF7B680022CF
:1023D0009A607B680022DA60FFF760FF00BF083771
:1023E000BD4680BD80B483B000AF78607B689A68DA
:1023F0007B68DB689A420CBF01230023DBB21846DE
:102400000C37BD465DF8047B704780B584B000AFE3
:1024100078607B68FB60FB681B69002B03D10020A0
:10242000FEF71AFC02E00020FEF7A8FA24220021A1
:10243000F8680EF027FE00BF1037BD4680BD0000D3
:1024400080B500AF3822002109480EF01BFE28227B
:10245000002108480EF016FE074B00221A700022D9
:1024600006490820FFF718FA0346184680BD00BF4A
:10247000E00E0020480F0020700F00208125001082
:1024800080B485B000AF0346B9607A60FB73FB7B14
:10249000062B02D94FF0FF330BE0FB7B0849BA68EB
:1024A00041F83320FB7B064ADB0013447A685A600C
:1024B000002318461437BD465DF8047B704700BF03
:1024C000E00E002080B485B000AF0346B9607A60AA
:1024D000FB73FB7B062B02D94FF0FF330DE0FB7B38
:1024E000094A52F83320BB681A60FB7B064ADB00BE
:1024F00013445A687B681A60002318461437BD4697
:102500005DF8047B704700BFE00E002080B483B00C
:1025100000AF03463960FB711346BB71FB79042B96
:1025200002D8BB79052B02D94FF0FF331DE0FB79B0
:10253000032B01D80023BB71FA79BB7913440E49F0
:102540003A6841F82320FB79012B0DD10A4B5B68D7
:10255000DB7903F04003002B06D0084B1B7843F0D7
:102560000103DAB2054B1A70002318460C37BD463A
:102570005DF8047B704700BF480F0020700F0020FB
:1025800080B586B000AF03463960FB7107F10C03DC
:102590001846FEF765FF0346002B02DA4FF0FF33C3
:1025A00050E02A4B5B68002B03D04FF0FF337B6178
:1025B0003AE03B7B03F06003402B1FD0402B2FDC25
:1025C000002B02D0202B07D02AE007F10C0318467D
:1025D00000F040F8786127E01D4B1B68002B09D004
:1025E0001B4B1B681A4A516807F10C0210469847AA
:1025F000786119E04FF0FF337B6115E0144B9B6865
:10260000002B09D0124B9B68114AD16807F10C02CC
:1026100010469847786107E04FF0FF337B6103E095
:102620004FF0FF337B6100BF7B69002B09DC7B69C6
:10263000002B03D10020FEF70FFB02E00020FEF785
:102640009DF97B6918461837BD4680BD240F0020D0
:10265000E00E002080B584B000AF78607B685B78C6
:102660000C2B54D801A252F823F000BFA126001071
:10267000AB2600100F270010B52600100F27001002
:10268000BF260010CD260010D7260010DF26001030
:10269000E9260010F3260010FD2600100727001081
:1026A000786800F03DF8F86035E0786800F0B2F83E
:1026B000F86030E0786800F027F9F8602BE07B687C
:1026C0005B881846FEF74CFFF86024E0786800F05D
:1026D00099F9F8601FE04FF0FF33FB601BE078686A
:1026E00000F098FAF86016E0786800F0CBFAF8602D
:1026F00011E0786800F0F4FAF8600CE0786800F017
:102700003DFBF86007E04FF0FF33FB6003E04FF064
:10271000FF33FB6000BFFB6818461037BD4680BD25
:10272000B0B584B000AF78607B685B88002B0DD1BA
:102730007B68DB88022B09D17B681B7803F01F03C1
:10274000002B06D17B689B88002B02D04FF0FF3313
:1027500053E07B681B7803F01F03022B19D17B68C1
:102760009B8803F00F031846FEF7AEF9F860FB688C
:10277000002B01DAFB6840E0FB68002BCCBF012393
:102780000023DBB21A461F4B1A701E4B00225A70F0
:1027900019E07B681B7803F01F03012B06D1194B4E
:1027A00000221A70174B00225A700CE07B681B78CD
:1027B00003F01F03002B06D1134B1A78114B1A702C
:1027C000104B00225A70114A114B14461D460FCD72
:1027D0000FC40FCD0FC42B6823600C4B094A5A60FD
:1027E0000A4B02229A600948FEF704FFF860FB6872
:1027F000002B01D10123FB60FB6818461037BD4652
:10280000B0BD00BF200F0020700F0020240F00205B
:10281000C46E011080B584B000AF78607B681B780F
:102820005BB2002B17DB7B68DB88002B13D17B6846
:102830005B88002B05D17B681B7803F01F03022BFC
:1028400009D17B685B88012B08D17B681B7803F07A
:102850001F03002B02D04FF0FF334CE07B685B88F6
:10286000002B10D17B689B88002B0CD07B689B8849
:1028700003F00F031846FEF7E3F8F860FB68002B3F
:1028800038DAFB6837E07B685B88012B19D11C4B79
:102890001B6B002B12D01A4B1B6B002178689847DA
:1028A000F860FB68002B01DAFB6824E0154B1B780D
:1028B00023F00203DAB2134B1A701BE04FF0FF3320
:1028C00019E07B685B88022B11D10D4B1B6B002B31
:1028D0000AD00B4B1B6B002178689847F860FB68A7
:1028E000002B07DAFB6806E04FF0FF3303E04FF000
:1028F000FF3300E0002318461037BD4680BD00BFFF
:10290000E00E0020700F002080B584B000AF78602A
:102910007B68DB88002B1DD17B685B88002B05D191
:102920007B681B7803F01F03022B13D17B685B8845
:10293000012B05D17B681B7803F01F03002B09D105
:102940007B685B88022B08D17B681B7803F01F0330
:10295000002B02D04FF0FF334CE07B685B88002BEC
:1029600010D17B689B88002B0CD07B689B8803F080
:102970000F031846FEF702F8F860FB68002B38DA00
:10298000FB6837E07B685B88012B19D11B4B9B6A86
:10299000002B12D0194B9B6A002178689847F86089
:1029A000FB68002B01DAFB6824E0154B1B7843F031
:1029B0000203DAB2124B1A701BE04FF0FF3319E03A
:1029C0007B685B88022B11D10C4B9B6A002B0AD0D1
:1029D0000A4B9B6A002178689847F860FB68002BD7
:1029E00007DAFB6806E04FF0FF3303E04FF0FF33F8
:1029F00000E0002318461037BD4680BDE00E0020E1
:102A0000700F0020B0B586B000AF786000233B6146
:102A10000023FB817B685B881B0A9BB2013B062B72
:102A200000F2AC8001A252F823F000BF492A001046
:102A30007F2A0010C72A00107D2B00107D2B00106C
:102A4000FD2A0010332B00107B681B7803F01F0356
:102A5000002B03D17B689B88002B02D00023FB81D5
:102A6000A1E0684B1B683B613B69002B02D100234E
:102A7000FB8198E03B691B789BB2FB8193E07B680C
:102A80001B7803F01F03002B03D17B689B88002B6E
:102A900002D00023FB8186E05A4B5B683B613B69B7
:102AA000002B02D10023FB817DE03B6903331B78BF
:102AB0009BB21B029AB23B6902331B789BB2134450
:102AC0009BB2FB816FE07B681B7803F01F03002B38
:102AD00053D17B685B88DBB2052B0CDC7B685B88A1
:102AE000DBB20433474A52F823303B613B691B7821
:102AF0009BB2FB8157E00023FB8154E07B681B788D
:102B000003F01F03002B03D17B689B88002B02D0AE
:102B10000023FB8147E03B4BDB683B613B69002BBB
:102B200002D10023FB813EE03B691B789BB2FB8115
:102B300039E07B681B7803F01F03002B03D17B680F
:102B40009B88002B02D00023FB812CE02D4B9B683F
:102B50003B613B69002B02D10023FB8123E03B69F1
:102B600003331B789BB21B029AB23B6902331B787A
:102B70009BB213449BB2FB8115E000BF224B1B6844
:102B8000002B0DD0204B1B6807F10E0207F110013E
:102B9000786898473B69002B04D10023FB8101E052
:102BA0000023FB8100BF7B68DA88FB899A4202D24E
:102BB0007B68DB88FB81FB89002B03D14FF0FF335F
:102BC0007B6114E0114A124B14461D460FCD0FC411
:102BD0000FCD0FC42B6823603B690C4A5360FB89FF
:102BE0001A460A4B9A600948FEF704FD78617B6932
:102BF000002B01D101237B617B6918461837BD4644
:102C0000B0BD00BF480F0020180F0020240F002087
:102C1000C46E0110B0B584B000AF78607B685B888B
:102C2000002B07D17B689B88002B03D17B68DB8856
:102C3000012B02D04FF0FF3319E00F4A0F4B14461F
:102C40001D460FCD0FC40FCD0FC42B6823600A4B58
:102C50000B4A5A60084B01229A600748FEF7CAFCEB
:102C6000F860FB68002B01D10123FB60FB6818466C
:102C70001037BD46B0BD00BF240F0020C46E011048
:102C80001C0F002080B582B000AF78607B689B8805
:102C9000002B03D17B68DB88002B02D04FF0FF3381
:102CA00016E00D4B1B69002B0CD00B4B1B690A4A1D
:102CB00052691146786898470346002B02DA4FF0B4
:102CC000FF3305E07B685B88DAB2044B1A7000239F
:102CD00018460837BD4680BDE00E00201C0F0020BE
:102CE000B0B584B000AF78607B685B88002B03D1FF
:102CF0007B68DB88012B02D04FF0FF3332E01B4BA7
:102D00001B6A002B11D0194B1B6A184A526A1146D4
:102D100078689847F860FB68002B01DAFB6821E0CF
:102D2000FB68DAB2124B1A7002E0114B00221A70E3
:102D3000104A114B14461D460FCD0FC40FCD0FC4C2
:102D40002B6823600B4B0A4A5A600A4B01229A6097
:102D50000848FEF74FFCF860FB68002B01D1012307
:102D6000FB60FB6818461037BD46B0BDE00E002082
:102D7000200F0020240F0020C46E011080B582B007
:102D800000AF78607B68DB88002B02D04FF0FF3308
:102D900018E00E4B9B69002B0CD00C4B9B690B4A27
:102DA000D2691146786898470346002B09DA4FF03C
:102DB000FF3307E07B685B88002B02D04FF0FF33C6
:102DC00000E0002318460837BD4680BDE00E002015
:102DD00080B400AF034B00221A7000BFBD465DF8FF
:102DE000047B70471C0F002080B582B000AF786074
:102DF000786800F00FF80837BD4680BD80B582B016
:102E000000AF7860786800F029F803461846083764
:102E1000BD4680BD80B485B000AF78607B680C4A49
:102E2000934208D07B680B4A934201D1012303E00F
:102E30004FF0FF3300E00023FB60074AFB680021EE
:102E400042F8231000BF1437BD465DF8047B70477D
:102E50000080024000500340740F002080B582B013
:102E600000AF78607B68002B43DB7B680F2B40DC76
:102E700023497A6813469B0013449B000B441B684C
:102E8000002B36D001211F4802F036FE0346002BEE
:102E900002D06FF005032EE019497A6813469B00B3
:102EA00013449B000B4400221A6015497A681346AC
:102EB0009B0013449B000B440C331B6800221A60D8
:102EC0000F497A6813469B0013449B000B440C3354
:102ED00019680B487A6813469B0013449B0003440F
:102EE0000C331B684A685A60064802F02CFE002327
:102EF00001E06FF0020318460837BD4680BD00BFF1
:102F00007C0F0020BC10002080B485B000AF78603A
:102F1000134B1B78002B1CD10023FB6013E0002314
:102F2000BB600AE00F49FB685A01BB6813440022EA
:102F300041F82320BB680133BB60BB681F2BF1DD68
:102F4000FB680133FB60FB68012BE8DD044B0122C9
:102F50001A70002318461437BD465DF8047B70478D
:102F6000C0110020C010002080B582B000AF786092
:102F70007B6803F00103002B02D0002002F01DFE4D
:102F80007B6803F00203002B02D0012002F015FE43
:102F90007868FFF7B9FF034618460837BD4680BD7D
:102FA00080B584B000AF78607B681B68FB607B688D
:102FB000197A7B685B681A46F86800F04DF9B860CA
:102FC000BB68002B01D0BB6895E07B685B7A042B63
:102FD00000F2858001A252F823F000BFF12F00100B
:102FE00047300010AD300010133000107930001061
:102FF000FB681A6E7B685B68DB431A40FB681A66E5
:10300000FB685A6E7B685B68DB431A40FB685A6654
:1030100068E0FB681A6E7B685B681A43FB681A6697
:10302000FB685A6E7B685B68DB431A40FB685A6634
:10303000FB68D3F8B8207B685B68DB431A40FB6809
:10304000C3F8B8204EE0FB681A6E7B685B681A43D1
:10305000FB681A66FB685A6E7B685B68DB431A4044
:10306000FB685A66FB68D3F8B8207B685B681A4334
:10307000FB68C3F8B82035E0FB681A6E7B685B68B4
:10308000DB431A40FB681A66FB685A6E7B685B6814
:103090001A43FB685A66FB68D3F8B8207B685B6804
:1030A000DB431A40FB68C3F8B8201BE0FB681A6ECC
:1030B0007B685B68DB431A40FB681A66FB685A6EE4
:1030C0007B685B681A43FB685A66FB68D3F8B820D4
:1030D0007B685B681A43FB68C3F8B82002E06FF0B6
:1030E000020308E07B68997A7B685B681A46F86897
:1030F00000F03CF8034618461037BD4680BD00BFBF
:1031000080B582B000AF786039603968786800F0C7
:103110003FF8034618460837BD4680BD80B582B0EB
:1031200000AF786039603968786800F040F800BF17
:103130000837BD4680BD80B582B000AF7860396089
:103140003968786800F041F800BF0837BD4680BD97
:1031500080B582B000AF786039603968786800F077
:1031600042F8034618460837BD4680BD80B584B096
:1031700000AFF8600B467A60FB72FB7A7A681946FA
:10318000F86800F03FF8034618461037BD4680BD8A
:1031900080B483B000AF786039607B685A6A3B685E
:1031A000134018460C37BD465DF8047B704780B469
:1031B00083B000AF786039607B683A68DA6100BF3D
:1031C0000C37BD465DF8047B704780B483B000AF18
:1031D000786039607B683A681A6200BF0C37BD4678
:1031E0005DF8047B704780B483B000AF78603960CD
:1031F0007B689A693B68134018460C37BD465DF8FA
:10320000047B704780B485B000AFF8600B467A60ED
:10321000FB72FB7A002B02D0012B0AD012E0FB6874
:10322000D3F8C0207B68DB431A40FB68C3F8C0209A
:103230000BE0FB68D3F8C0207B681A43FB68C3F837
:10324000C02002E06FF0020300E0002318461437AC
:10325000BD465DF8047B704780B485B000AFF86070
:103260000B467A60FB72FB681A6B7B681A43FB683B
:103270001A63FB687A685A60FB7A052B68D801A24A
:1032800052F823F09D320010BF320010E1320010DE
:10329000FD3200101933001035330010FB687A68D6
:1032A0005A61FB687A685A60FB687A681A67FB683B
:1032B0007A68DA67FB687A68C3F888204BE0FB68B5
:1032C0007A681A61FB687A685A60FB687A681A67DC
:1032D000FB687A68DA67FB687A68C3F888203AE0A6
:1032E000FB687A68C3F88820FB687A68DA67FB684D
:1032F0007A681A67FB687A689A602CE0FB687A68DB
:10330000C3F88820FB687A68DA67FB687A68DA664F
:10331000FB687A689A601EE0FB687A68C3F88820C8
:10332000FB687A689A67FB687A681A67FB687A684C
:103330009A6010E0FB687A68C3F88820FB687A68B6
:103340009A67FB687A68DA66FB687A689A6002E0D6
:103350006FF0020300E0002318461437BD465DF805
:10336000047B704780B584B000AFF860B9607A60C4
:10337000FB68002B02D14FF0FF3338E0F86800F013
:1033800063F8FB681C4A934203D0FB681B4A9342D4
:1033900006D10D2002F011FC1948FFF701FE20E0D4
:1033A000FB68184A934203D0FB68174A934206D140
:1033B0001C2002F002FC1548FFF7F2FD11E0FB684B
:1033C000134A934203D0FB68124A934206D1382035
:1033D00002F0F3FB1048FFF7E3FD02E06FF001039A
:1033E00005E07A68B968F86800F080F90346184685
:1033F0001037BD4680BD00BF00D0014000D0114055
:10340000E86E011000E0014000E01140F46E011090
:1034100000F0014000F01140006F011080B584B051
:1034200000AFF860B9607A607B68002B02D06FF063
:10343000100305E07A68B968F86800F053FA0346AB
:1034400018461037BD4680BD80B584B000AF7860A7
:103450007B68414A934203D07B68404A934203D140
:103460000D2002F080FB1AE07B683D4A934203D0B6
:103470007B683C4A934203D11C2002F074FB0EE0AF
:103480007B68394A934203D07B68384A934203D120
:10349000382002F068FB02E06FF0010358E07B681F
:1034A0002D4A934223D07B682D4A93421DD07B68DE
:1034B0002D4A934217D07B68284A934210D07B68EC
:1034C000284A934209D07B68284A934202D148F2A5
:1034D00002030DE04FF0FF330AE048F2010307E07A
:1034E0004FF4004304E0022302E0012300E0002344
:1034F000FB60FB68022B1BD0FB68022B21DCFB6806
:10350000002B03D0FB68012B09D01AE04FF0804359
:103510005B684FF0804243F48033536014E04FF017
:1035200080435B6C4FF0804243F0010353640BE037
:103530004FF080435B6C4FF0804243F48013536440
:1035400002E06FF0020303E0786800F00BFA034634
:1035500018461037BD4680BD00D0014000D0114054
:1035600000E0014000E0114000F0014000F0114097
:1035700080B582B000AF786039603968786800F053
:10358000AFFA034618460837BD4680BD80B582B005
:1035900000AF7860786800F037FB034618460837BC
:1035A000BD4680BD80B582B000AF7860786800F01D
:1035B00061FB034618460837BD4680BD80B582B022
:1035C00000AF7860786800F079FB0346184608374A
:1035D000BD4680BD80B584B000AFF860B9607A6048
:1035E0007A68B968F86800F087FB03461846103718
:1035F000BD4680BD80B584B000AFF860B9607A6028
:103600007A68B968F86800F0A2FB034618461037DC
:10361000BD4680BD80B582B000AF7860786800F0AC
:10362000C2FB00BF0837BD4680BD80B582B000AF89
:103630007860786800F0CFFB00BF0837BD4680BDDA
:1036400080B584B000AFF860B9607A607A68B96814
:10365000F86800F0D8FB00BF1037BD4680BD80B5CC
:1036600082B000AF786039603968786800F0DDFBBF
:10367000034618460837BD4680BD80B582B000AF0E
:103680007860786800F074FC034618460837BD4639
:1036900080BD80B582B000AF7860396039687868E5
:1036A00000F0AEFD034618460837BD4680BD80B524
:1036B00082B000AF786039603968786800F0C0FD8A
:1036C000034618460837BD4680BD000080B582B06D
:1036D00000AF7860044B1B681946786801F096F9D2
:1036E00000BF0837BD4680BD2800002080B586B0E9
:1036F00000AFF860B9607A60FB68002B02D14FF030
:10370000FF33DCE0FB68704A934220D0FB686F4ACD
:1037100093421AD0FB686E4A934214D0FB686D4AFC
:1037200093420ED0FB686C4A934208D0FB686B4A08
:10373000934201D102230BE04FF0FF3308E0012355
:1037400006E0002304E0022302E0012300E000235E
:10375000FB751021F868FFF782FF38613B69002B89
:1037600001D03B69ABE0FB681B6843F00102FB68DA
:103770001A60F868FFF74EFFF868FFF756FF02215E
:10378000F868FFF794FF0621F868FFF782FFBB682F
:10379000002B34D100227968F868FFF73FFEFB6800
:1037A000494A934223D0FB68484A93421DD0FB68A4
:1037B000474A934217D0FB68464A934210D0FB68B1
:1037C000454A934209D0FB68444A934202D148F2E9
:1037D00002030DE04FF0FF330AE048F2010307E077
:1037E0004FF4004304E0022302E0012300E0002341
:1037F0003B4A5B011344043300221A6034E0FB6847
:103800001B6843F00202FB681A60FB682E4A934271
:1038100023D0FB682D4A93421DD0FB682C4A93426B
:1038200017D0FB682B4A934210D0FB682A4A934278
:1038300009D0FB68294A934202D148F202030DE005
:103840004FF0FF330AE048F2010307E04FF4004372
:1038500004E0022302E0012300E00023204A5B0190
:103860001344043301221A6097F917301C4A5B0194
:10387000134408336FF001021A6097F91730184AA1
:103880005B0113440C336FF001021A6097F9173093
:10389000134A5B011344103300221A6097F9173062
:1038A0000F4A5B011344143300221A6097F9173052
:1038B0000B4A5B011344183300221A700023184688
:1038C0001837BD4680BD00BF00D0014000E0014078
:1038D00000F0014000D0114000E0114000F0114024
:1038E000C411002080B485B000AFF860B9607A6080
:1038F000FB68002B02D14FF0FF332DE07B68032BD8
:1039000002D96FF0100327E0BB68B3F5806F02D3D4
:103910006FF0020320E0FA687B6812339B001344C7
:1039200000225A60BB687F2B07D9FA687B68123384
:103930009B0013444FF400425A60FA687B681233CC
:103940009B0013445A68BB681A43F9687B681233BA
:103950009B000B445A60002318461437BD465DF89F
:10396000047B704780B58CB000AF78607B68002B1B
:1039700002D14FF0FF33A1E07B68524A934220D03E
:103980007B68514A93421AD07B68504A934214D0C4
:103990007B684F4A93420ED07B684E4A934208D0D0
:1039A0007B684D4A934201D102230BE04FF0FF3375
:1039B00008E0012306E0002304E0022302E00123E3
:1039C00000E0002387F82F307B6800221A607B68B4
:1039D0000022DA607B6800225A617B689A687B6803
:1039E0009A607B681A697B681A617B680022DA61D9
:1039F0007B6800221A627B6800225A627B68002280
:103A00009A6297F92F30354A5B01134418462023F8
:103A10001A4600210DF036FB7868FFF7FBFD786849
:103A2000FFF703FE97F92F302C4A5B01134418333C
:103A30001B78002B41D097F92F30284A5B011344A3
:103A40001C331B681846FFF7CFF997F92F30234A2C
:103A50005B01134408331B68002B12DB97F92F30EE
:103A60001E4A5B01134408331B681846FFF7C6F96A
:103A700097F92F30194A5B01134408336FF00102A4
:103A80001A6097F92F30154A5B0113440C331B68F9
:103A9000002B12DB97F92F30104A5B0113440C33D3
:103AA0001B681846FFF7AAF997F92F300B4A5B01FC
:103AB00013440C336FF001021A60002318463037AC
:103AC000BD4680BD00D0014000E0014000F0014053
:103AD00000D0114000E0114000F01140C41100205E
:103AE00080B588B000AF786039607B68002B02D168
:103AF0004FF0FF337AE03B683E4A934240D93B683F
:103B00003D4A93423CD83D4B1B685A083B68B2FB88
:103B1000F3F37B617B695B00394AA2FB03235B08FB
:103B2000013B3B617B69364AA2FB03235B08013BF7
:103B3000BB617B6903F00103002B02D0BB69013339
:103B4000BB61BB690F2B02DC3B690F2B02DD6FF001
:103B500002034BE03B69DBB23B61BB691B029BB2DA
:103B6000BB613A69BB6913431A467B68DA637B68B9
:103B70001B6843F400427B681A60224B3B6006E0FE
:103B80003B681D4A934202D96FF002032EE01B4BA3
:103B90001B685A083B68B2FBF3F37B617B695B08E7
:103BA000013BFB617B695B08013BFB607B6903F0C8
:103BB0000103002B02D0FB690133FB61FB69B3F504
:103BC000007F02D2FB68002B02D16FF002030DE0F0
:103BD000FB68C3F308027B685A63FB69C3F30802FE
:103BE0007B689A637868FFF7D1FC03461846203754
:103BF000BD4680BD40420F0040E133000000002080
:103C0000ABAAAAAA801A060080B485B000AF78607B
:103C10000223FB607B681B6803F40043002B0DD07C
:103C20007B68DB6BDBB2FA681344FB607B68DB6BA1
:103C30001B0ADBB2FA681344FB600DE07B685B6B28
:103C4000C3F30803FA681344FB607B689B6BC3F300
:103C50000803FA681344FB60054B1B685A08FB68AD
:103C6000B2FBF3F318461437BD465DF8047B70478A
:103C70000000002080B483B000AF78607B68002B28
:103C800002D14FF0FF3313E07B681B6B03F001039D
:103C9000002B06D07B681B6B43F002027B681A6323
:103CA00005E07B681B6B43F001027B681A6300230D
:103CB00018460C37BD465DF8047B704780B483B06E
:103CC00000AF78607B68002B02D14FF0FF330DE02E
:103CD0007B681B6B43F004027B681A6300BF7B6840
:103CE0001B6B03F00403002BF9D1002318460C379B
:103CF000BD465DF8047B704780B487B000AFF860C4
:103D0000B9607A6000237B61FB68002B02D0BB683E
:103D1000002B0BD14FF0FF3313E0FB68D96A7B69AE
:103D20005A1C7A61BA681344CAB21A707A687B69FD
:103D30009A4205D9FB685B6803F00203002BECD0C4
:103D40007B6918461C37BD465DF8047B704780B41C
:103D500087B000AFF860B9607A6000237B61FB68D0
:103D6000002B02D0BB68002B0CD14FF0FF3314E0C6
:103D70007B695A1C7A61BA6813441B78DBB21A4615
:103D8000FB68DA627A687B699A4205D9FB685B68EE
:103D900003F01003002BEBD07B6918461C37BD469F
:103DA0005DF8047B704780B483B000AF78607B68B7
:103DB000DB6943F080027B68DA6100BF7B68DB6906
:103DC00003F08003002BF9D100BF00BF0C37BD46C4
:103DD0005DF8047B704780B483B000AF78607B6887
:103DE0005B6A43F080027B685A6200BF7B685B6A53
:103DF00003F08003002BF9D100BF00BF0C37BD4694
:103E00005DF8047B704780B485B000AFF860B9609E
:103E10007A60FB68BA689A60FB687A681A6100BFCA
:103E20001437BD465DF8047B704780B586B000AF9F
:103E3000786039607B68002B02D14FF0FF3393E04C
:103E40006FF008037B617B681B6843F001027B68AD
:103E50001A607B681B6803F48063FB607B68002B3F
:103E600002D14FF0FF337FE07B681B6843F4806230
:103E70007B681A6000233B6162E00A2001F004FEC7
:103E80007B681B6823F040027B681A600A2001F0FF
:103E9000FBFD7B681B6803F48073002B06D07B68F6
:103EA0001B6843F0C0027B681A6046E00A2001F0FC
:103EB000EBFD7B681B6823F080027B681A600A2098
:103EC00001F0E2FD7B681B6803F40073002B06D051
:103ED0007B681B6843F0C0027B681A602DE00A20F3
:103EE00001F0D2FD7B681B6843F080027B681A609A
:103EF0000A2001F0C9FD7B681B6803F40073002BE6
:103F000006D17B681B6843F0C0027B681A6014E02E
:103F10000A2001F0B9FD7B681B6843F040027B6812
:103F20001A600A2001F0B0FD7B681B6803F48073FF
:103F3000002B02D000237B6106E03B6901333B612B
:103F40003A693B689A4298D3FB68002B05D17B689D
:103F50001B6823F480627B681A607B681B6823F00F
:103F600001027B681A607B6918461837BD4680BD20
:103F700080B586B000AF78607B681B68FB6000236B
:103F80007B6100233B617B685B687F2B02D96FF00C
:103F9000100325E1FB68944A934216D0FB68934ACC
:103FA000934212D0FB68924A93420ED0FB68914A2A
:103FB00093420AD0FB68904A934206D0FB688F4A2E
:103FC000934202D06FF002030AE1FB681B6803F022
:103FD0000203002B02D16FF0060301E107226FF00C
:103FE0007F41F868FFF72CFBF868FFF71EFBF868C5
:103FF000FFF710FBFB680022DA60FB6800225A61C1
:104000007B685B69002B03D07B68DB68002B34D0B6
:104010007B685B685A00FB68DA62FB681B6B43F0E5
:104020000102FB681A6328E0FB689B6803F0200329
:10403000002B13D07B689A687B69D1187B68DA689B
:104040007B69D31A1A46F868FFF7D4FA03461A4672
:104050007B6913447B61FB6820229A60FB689B6844
:1040600003F4FE43002B08D07B687A69DA60F868B5
:10407000FFF7A4FA6FF00803B2E07B68DB687A69A7
:104080009A42D1D300221121F868FFF7D9FA7B6850
:104090005B69002B73D07B685B69B3F5807F03D9C4
:1040A000FB6800221A6203E07B685A69FB681A62A7
:1040B000F868FFF777FA00BFFB681B6B03F0020399
:1040C000002BF9D17B685B685B0043F00102FB6861
:1040D000DA6254E0FB689B6803F01103002B13D0F5
:1040E0007B681A693B69D1187B685A693B69D31AA6
:1040F0001A46F868FFF76EFA03461A463B691344FE
:104100003B61FB6810229A60FB689B6803F4FE43E6
:10411000002B08D07B683A695A61F868FFF74EFABD
:104120006FF008035CE0FB689B6803F00103002B61
:1041300025D07B685B693A699A4220D97B685A69C5
:104140003B69D31AB3F5807F03D9FB6800221A625A
:1041500005E07B685A693B69D21AFB681A62FB6802
:104160001B6B43F00202FB681A63FB6801229A6032
:104170007B685B685B0043F00102FB68DA627B6886
:104180005B693A699A42A5D37B689B69002B06D08C
:10419000FB681B6B43F00202FB681A630CE0FB68D0
:1041A0001B6B43F00402FB681A6300BFFB689B684B
:1041B00003F04003002BF9D000BFFB689B6803F0BD
:1041C0000103002BF9D0FB6841229A60FB689B68D1
:1041D00003F4FE43002B02D06FF0080300E000233D
:1041E00018461837BD4680BD00D0014000E00140B0
:1041F00000F0014000D0114000E0114000F01140FB
:1042000080B485B000AF786039607B689B69DBB2B1
:10421000FB603A68FB689A4202D96FF0020309E03A
:104220007B68DB6923F470623B681B021A437B687E
:10423000DA61002318461437BD465DF8047B7047E9
:1042400080B485B000AF786039607B689B691B0AD9
:10425000DBB2FB603A68FB689A4202D96FF0020356
:1042600009E07B685B6A23F470623B681B021A43B7
:104270007B685A62002318461437BD465DF8047BFC
:104280007047000080B584B000AF786039607B680B
:104290001C4A934223D07B681B4A93421DD07B6803
:1042A0001A4A934217D07B68194A934210D07B6810
:1042B000184A934209D07B68174A934202D148F2C8
:1042C00002030DE04FF0FF330AE048F2010307E07C
:1042D0004FF4004304E0022302E0012300E0002346
:1042E0000E4A52F82330FB60FB68DB69002B04D0D8
:1042F000FB68DB693968F868984700BF1037BD462E
:1043000080BD00BF00D0014000E0014000F001404E
:1043100000D0114000E0114000F0114024120020B4
:1043200080B483B000AF78607B680022DA607B687D
:1043300000225A617B689A687B689A607B681A6978
:104340007B681A617B68194A934223D07B68184ABC
:1043500093421DD07B68174A934217D07B68164A58
:10436000934210D07B68154A934209D07B68144A67
:10437000934202D148F202030DE04FF0FF330AE00E
:1043800048F2010307E04FF4004304E0022302E097
:10439000012300E000230B4A002142F8231000BF54
:1043A0000C37BD465DF8047B704700BF00D001406C
:1043B00000E0014000F0014000D0114000E0114059
:1043C00000F011402412002080B586B000AF786064
:1043D0008F4A7B6852F823307B618E4A7B6852F8A3
:1043E00023303B617B68002B1FD07B68012B1AD0E8
:1043F0007B68022B15D07B68B3F5004F0FD07B682C
:1044000048F20102934208D07B6848F202029342CC
:1044100001D1814B0AE0002308E0804B06E0804B8D
:1044200004E0804B02E0804B00E0804BFB60804A60
:104430007B6852F82330BB60FB689B6803F4FE4343
:10444000002B19D0FB689A68FB689A60FB681A69B0
:10445000FB681A61FB680022DA60FB6800225A617F
:10446000F868FFF7ABF86FF00801F868FFF70AFF8C
:10447000F868FFF755FF01E1BB68DB687A699A428B
:1044800043D2FB689B6803F02003002B13D0BB686A
:104490009A687B69D118BB68DA687B69D31A1A46B7
:1044A000F868FFF7A7F803461A467B6913447B6157
:1044B000FB6820229A60BB68DB687A699A4206D260
:1044C000FB68DB6843F02002FB68DA6005E0FB680C
:1044D000DB6823F02002FB68DA60BB68DB687A697E
:1044E0009A4212D1BB685B69002B0ED0FB681B6B34
:1044F00043F00202FB681A63FB6801229A60FB68C2
:10450000DB6843F00102FB68DA60BB685B693A690B
:104510009A4219D2FB689B6803F01103002B13D059
:10452000BB681A693B69D118BB685A693B69D31AE1
:104530001A46F868FFF74EF803461A463B691344DB
:104540003B61FB6810229A60BB68DB687A699A421B
:104550003AD1BB685B693A699A4235D0FB689B687F
:1045600003F00103002B2FD0FB6801229A603B6906
:10457000002B06D1BB685B685B0043F00102FB685F
:10458000DA62BB685A693B69D31AB3F5807F03D9F5
:10459000FB6800221A6205E0BB685A693B69D21ABF
:1045A000FB681A62BB685B693A699A4206D2FB688B
:1045B000DB6843F01102FB68DA6005E0FB68DB684A
:1045C00023F01102FB68DA60BB68DB687A699A4203
:1045D0004AD1BB685B693A699A4245D1FB680022BF
:1045E000DA60FB6800225A61FB689A68FB689A608F
:1045F000FB681A69FB681A61BB689B69002B19D0BC
:10460000FB681B6B43F00202FB681A6318E000BFF3
:10461000301200203C12002000F0114000E0114058
:1046200000D0114000F0014000E0014000D0014006
:1046300024120020FB681B6B43F00402FB681A6322
:10464000FB689B6803F4FE43002B05D06FF0080164
:10465000F868FFF717FE03E00021F868FFF712FE85
:10466000F868FFF75DFE09E006497B687A6941F862
:10467000232005497B683A6941F823201837BD4655
:1046800080BD00BF301200203C12002080B586B0F3
:1046900000AFF860B9607A603B60FB689B687B6143
:1046A0003B6800221A607B6903F4FE43002B4BD069
:1046B0003B686FF008021A60BB68002B04D0BB682F
:1046C0003A680421F868984707226FF07F41F8683C
:1046D000FFF799FBF868FFF77EFBF868FFF763FBCD
:1046E0007B6800221A607B68043300221A60FB6832
:1046F0007E4A934223D0FB687D4A93421DD0FB68DB
:104700007C4A934217D0FB687B4A934210D0FB68E7
:104710007A4A934209D0FB68794A934202D148F21F
:1047200002030DE04FF0FF330AE048F2010307E017
:104730004FF4004304E0022302E0012300E00023E1
:10474000704A002142F823107B681B6803F01003B5
:10475000002B06D17B6804331B6803F00103002B98
:1047600020D07B6903F01003002B0AD0BB68002B1C
:1047700004D0BB6800220221F8689847FB68102229
:104780009A60FB681B6903F00103002B0AD0BB6829
:10479000002B04D0BB6800220621F8689847FB680C
:1047A00001221A617B681A6848F220031340002B2B
:1047B00006D17B6804331B6803F00203002B68D02A
:1047C0007B6903F02003002B0AD0BB68002B04D0C8
:1047D000BB6800220321F8689847FB6820229A6092
:1047E000FB681B6903F00203002B0AD0BB68002B97
:1047F00004D0BB6800220521F8689847FB680222B4
:104800001A617B6903F40043002B42D03B6800220D
:104810001A60BB68002B04D0BB683A680421F868B2
:104820009847FB684FF400429A607B6800221A6048
:104830007B68043300221A60FB682C4A934223D021
:10484000FB682B4A93421DD0FB682A4A934217D03B
:10485000FB68294A934210D0FB68284A934209D04A
:10486000FB68274A934202D148F202030DE04FF061
:10487000FF330AE048F2010307E04FF4004304E08D
:10488000022302E0012300E000231E4A002142F837
:1048900023107B681B6803F00803002B4BD07B6957
:1048A00003F00803002B46D0FB681B6803F4006389
:1048B000002B29D0BB68002B04D0BB68002201214B
:1048C000F8689847FB684FF480029A60FB680822FA
:1048D0009A60FB684FF400429A607B684FF6217241
:1048E0001A607B68043302221A6024E000D0014081
:1048F00000E0014000F0014000D0114000E0114014
:1049000000F0114024120020BB68002B04D0BB68CB
:1049100000220021F8689847FB684FF400029A6073
:10492000FB6808229A607B6847F611721A607B6800
:10493000043301221A607B681B6803F00103002B1B
:1049400052D07B6903F04003002B42D03B68002229
:104950001A60BB68002B04D0BB683A680421F86871
:104960009847FB6840229A607B6800221A607B6847
:10497000043300221A60FB681D4A934223D0FB686F
:104980001C4A93421DD0FB681B4A934217D0FB6818
:104990001A4A934210D0FB68194A934209D0FB6827
:1049A000184A934202D148F202030DE04FF0FF3360
:1049B0000AE048F2010307E04FF4004304E0022359
:1049C00002E0012300E000230F4A002142F82310F7
:1049D0000AE07B6903F00103002B05D0FB6801228C
:1049E0009A607B6808221A6000BF1837BD4680BDF8
:1049F00000D0014000E0014000F0014000D0114033
:104A000000E0114000F011402412002080B588B071
:104A100000AF786039607B68294A934223D07B6875
:104A2000284A93421DD07B68274A934217D07B685F
:104A3000264A934210D07B68254A934209D07B686E
:104A4000244A934202D148F202030DE04FF0FF33B3
:104A50000AE048F2010307E04FF4004304E00223B8
:104A600002E0012300E00023FB61FB69002B23DB54
:104A70007B681B6803F00203002B03D0F869FFF783
:104A8000A3FC1AE0144AFB6952F82330BB617B682F
:104A9000DB68FB607B685B693B6107F1140307F12E
:104AA0000C02B9697868FFF7F1FDFA687B68DA6093
:104AB0003A697B685A6100E000BF2037BD4680BD7F
:104AC00000D0014000E0014000F0014000D0114062
:104AD00000E0114000F011402412002080B582B0A7
:104AE00000AF78607968044800F044F8034618463F
:104AF0000837BD4680BD00BF0060004080B582B071
:104B000000AF78607968044800F059F80346184609
:104B10000837BD4680BD00BF0060004080B500AFD3
:104B2000024800F072F80346184680BD006000405D
:104B300080B582B000AF78607968044800F073F8FF
:104B4000034618460837BD4680BD00BF00600040E0
:104B500080B400AF00BF064B1B6903F00803002BB5
:104B6000F9D100BF00BFBD465DF8047B704700BFB0
:104B70000060004080B582B000AF786039603B686B
:104B800003F026033B603B68002B02D16FF0020369
:104B900011E0FFF7DDFF7B681A693B681A437B6809
:104BA0001A613B6823F020033B603B68002B01D077
:104BB000FFF7CEFF002318460837BD4680BD80B5FD
:104BC00082B000AF786039603B6803F026033B6039
:104BD0003B68002B02D16FF0020312E0FFF7B8FF31
:104BE0007B681A693B68DB431A407B681A613B6843
:104BF00023F020033B603B68002B01D0FFF7A8FFA8
:104C0000002318460837BD4680BD80B483B000AF8E
:104C100078607B681B6903F0D00318460C37BD46EB
:104C20005DF8047B704780B483B000AF7860396072
:104C30007B681B693A6802F0D002D2431A407B6855
:104C40001A61002318460C37BD465DF8047B704797
:104C500080B588B002AFF860B9607A603B60FB68ED
:104C6000514A93420ED0FB68504A934208D0FB68E9
:104C70004F4A934201D1022305E04FF0FF3302E097
:104C8000012300E000237B613B68042B02DD6FF011
:104C9000020385E0474B1B685B087A6A9A4202D997
:104CA0006FF002037CE0FB683F4A93422AD14FF049
:104CB00080435B6C4FF0804243F40073536400BF49
:104CC0004FF080435B6C03F40073002BF8D14FF07E
:104CD00080439B6C4FF0804223F48043936497F8A9
:104CE0002830002B03D13448FEF75AF94DE097F8ED
:104CF0002830012B03D13148FEF752F945E06FF01F
:104D000002034DE0FB68294A93421BD14FF08043D8
:104D10005B684FF0804243F40053536000BF4FF094
:104D200080435B6803F40053002BF8D14FF08043BD
:104D30005B6A4FF0804223F0400353622048FEF745
:104D40002FF922E0FB681A4A93421BD14FF08043AF
:104D50005B684FF0804243F48043536000BF4FF0E4
:104D600080435B6803F48043002BF8D14FF080430D
:104D70005B6A4FF0804223F0800353621148FEF7D4
:104D80000FF902E06FF001030AE07B6A01933B6ACE
:104D900000933B687A68B968F86800F03FF9034609
:104DA00018461837BD4680BD00E00B400060044047
:104DB00000700440000000200C6F0110186F0110FB
:104DC000486F0110786F011080B584B000AF786033
:104DD0007B68234A93420ED07B68224A934208D0D4
:104DE0007B68214A934201D1022305E04FF0FF3353
:104DF00002E0012300E00023FB60786800F0FEF988
:104E00007B68174A934208D14FF080439B6C4FF068
:104E1000804243F4804393641CE07B68114A9342D0
:104E200008D14FF080435B6A4FF0804243F040036B
:104E300053620FE07B680C4A934208D14FF08043E5
:104E40005B6A4FF0804243F08003536202E06FF0F0
:104E5000030300E0002318461037BD4680BD00BFA5
:104E600000E00B40006004400070044080B485B056
:104E700000AF78607B68224A93422DD14FF0804387
:104E80009B685B0A03F00703FB60FB68062B20D8D6
:104E900001A252F823F000BFBF4E0010D34E001005
:104EA000C34E0010C74E0010B54E0010B94E001092
:104EB000CD4E0010134B1CE04FF4E10319E0124BF0
:104EC00017E0124B15E04FF4FA5312E04FF4004391
:104ED0000FE06FF002030CE07B680D4A934203D0B1
:104EE0007B680C4A934203D10B4B1B685B0800E0C4
:104EF000002318461437BD465DF8047B704700BF99
:104F000000E00B4000D8B805008793030048E80193
:104F100000600440007004400000002080B582B0B2
:104F200000AF786039603968786800F025FA034688
:104F300018460837BD4680BD80B582B000AF7860A6
:104F400039603968786800F07FFA034618460837F8
:104F5000BD4680BD80B582B000AF7860786800F053
:104F6000E5FA034618460837BD4680BD80B582B0D5
:104F700000AF78600B46FB70FB781946786800F04C
:104F8000EDFA034618460837BD4680BD80B582B0AD
:104F900000AF78600B46FB70FB781946786800F02C
:104FA00019FB034618460837BD4680BD80B584B05E
:104FB00000AFF860B9607A607A68B968F86800F0A4
:104FC00059FB034618461037BD4680BD80B582B0F8
:104FD00000AF7860786800F0AFFB034618460837EA
:104FE000BD4680BD80B584B000AFF860B9607A601E
:104FF0007A68B968F86800F0AEFB034618461037C7
:10500000BD4680BD80B582B000AF7860786800F0A2
:1050100000FC034618460837BD4680BD80B586B003
:1050200000AFF860B9607A603B60FB686E4A9342FB
:105030000ED0FB686D4A934208D0FB686C4A9342DD
:1050400001D1022305E04FF0FF3302E0012300E02D
:1050500000237B617B69002B02DA6FF00203BEE064
:1050600064497A6913469B001344DB000B44002219
:105070001A6060497A6913469B001344DB000B44B5
:10508000083300221A605B497A6913469B00134477
:10509000DB000B440C3301221A6056497A6913462F
:1050A0009B001344DB000B44103300221A6051496B
:1050B0007A6913469B001344DB000B441C33002227
:1050C0001A604C497A6913469B001344DB000B4479
:1050D000203300221A6047497A6913469B00134423
:1050E000DB000B4414336FF001021A6041497A6906
:1050F00013469B001344DB000B4418336FF001028E
:105100001A603C497A6913469B001344DB000B4448
:10511000273301221A70FB6801225A60FB68364A65
:105120001A61BB68002B06D0FB685B6843F0020283
:10513000FB685A6005E0FB685B6823F00202FB68CD
:105140005A60796AF868FFF7E9FE3B6AFF2B02D9DB
:105150006FF0020343E0FB68DA683B6A1B041A4302
:10516000FB68DA60FB681A6AFB681A6221497A698F
:1051700013469B001344DB000B4427331B78002BA2
:1051800023D03B68012B05D1FB685B6843F4803278
:10519000FB685A603B68022B05D1FB685B6843F4EF
:1051A0004032FB685A603B68032B05D1FB685B68A3
:1051B00043F4E022FB685A603B68042B05D1FB688E
:1051C0005B6843F47022FB685A607B68002B05D053
:1051D000FB68DB6843F40052FB68DA600023184682
:1051E0001837BD4680BD00BF00E00B4000600440A2
:1051F00000700440481200200101010080B584B015
:1052000000AF78607B68584A93420ED07B68574A5B
:10521000934208D07B68564A934201D1022305E0AD
:105220004FF0FF3302E0012300E00023FB607B68C6
:1052300000225A627B681A6A7B681A627B685B6824
:1052400023F001027B685A607B68DB6923F040121F
:105250007B68DA614749FA6813469B001344DB0018
:105260000B441B68002B2AD04249FA6813469B0066
:105270001344DB000B441B68BB60FA6813469B00B9
:105280001344DB003B4A1344184600F05CFC3949E8
:10529000FA6813469B001344DB000B441B685B6AEF
:1052A000002B0CD03349FA6813469B001344DB00F3
:1052B0000B441B685B6A6FF00E01B86898477B6807
:1052C00000225A607B6800229A607B680022DA60C4
:1052D0007B6800221A612749FA6813469B00134431
:1052E000DB000B4414331B68002B16DB2149FA68E2
:1052F00013469B001344DB000B4414331B68184611
:10530000FDF7ACFD1B49FA6813469B001344DB0014
:105310000B4414336FF001021A601649FA68134601
:105320009B001344DB000B4418331B68002B16DB77
:105330001049FA6813469B001344DB000B441833F2
:105340001B681846FDF78AFD0A49FA6813469B0058
:105350001344DB000B4418336FF001021A60002382
:1053600018461037BD4680BD00E00B400060044089
:10537000007004404812002080B586B000AF78600D
:105380003960304B1B685B083A689A4202D96FF06B
:10539000020353E07868FFF769FD0346BB60BA6813
:1053A0003B68B2FBF3F3BB60BB685B087B61BB6827
:1053B0005B083B610023FB60BB6803F00103002B2B
:1053C00010D07B6901337B610CE07B69DA0F1344F9
:1053D0005B107B613B69DA0F13445B103B61FB6838
:1053E0000133FB607B690F2B02DDFB68072BECDDD3
:1053F000FB68082B03D10F233B610F237B617B6884
:105400005B6923F0FF023B69DBB21A437B685A6198
:105410007B685B6923F47F427B691B029BB21A4362
:105420007B685A617B685B6923F47022FB681B040C
:1054300003F470231A437B685A6100231846183717
:10544000BD4680BD0000002080B485B000AF78600C
:1054500039603B68012B02D03B68102B02DD6FF0F6
:10546000020354E07B682D4A93420ED07B682C4A9D
:10547000934208D07B682B4A934201D1022305E076
:105480004FF0FF3302E0012300E00023FB607B6864
:105490001B6B03F00103002B37D12349FA68134635
:1054A0009B001344DB000B440C331B68012B2CD1F5
:1054B0007B685B6823F001027B685A6039681A4890
:1054C000FA6813469B001344DB0003440833196059
:1054D0003B680F2B0BDC7B68DB6823F470623B6856
:1054E0001B0203F470631A437B68DA6005E07B6893
:1054F000DB6823F470627B68DA607B685B6843F08A
:1055000001027B685A60002301E06FF00603184631
:105510001437BD465DF8047B704700BF00E00B40C8
:1055200000600440007004404812002080B483B042
:1055300000AF78607B68DB6803F47063002B01D1F7
:10554000102304E07B68DB681B0A03F00F03184696
:105550000C37BD465DF8047B7047000080B483B013
:1055600000AF78600B46FB707B68DB6823F4304249
:105570007B68DA60FB78032B24D801A252F823F071
:10558000915500109F550010A9550010B7550010F7
:105590007B68DB6843F400427B68DA6012E07B687A
:1055A000DA687B68DA600DE07B68DB6843F4805280
:1055B0007B68DA6006E07B68DB6843F400527B6856
:1055C000DA6000BF002318460C37BD465DF8047B47
:1055D000704700BF80B483B000AF78600B46FB70AB
:1055E000FB78032B3ED801A252F823F0FD550010A2
:1055F00017560010315600104B5600107B68DB68C0
:1056000023F001027B68DA607B68DB6823F002022A
:105610007B68DA6027E07B68DB6843F001027B6827
:10562000DA607B68DB6823F002027B68DA601AE0EC
:105630007B68DB6823F001027B68DA607B68DB68EB
:1056400043F002027B68DA600DE07B68DB6843F0C0
:1056500001027B68DA607B68DB6843F002027B68EA
:10566000DA6000E000BF002318460C37BD465DF845
:10567000047B704780B588B000AFF860B9607A608D
:10568000BB68002B02D07B68002B01D100234FE0C8
:10569000F868FFF79BFCB861F868FFF75BFC03460E
:1056A0007B617A68BB699A4201D9BB697B607B697F
:1056B000082B03D97B6823F001037B600023FB6187
:1056C00032E07B69082B23D97B68032B0CD9BA689D
:1056D000FB691344FA6812681A607B68043B7B60BC
:1056E000FB690433FB610FE07B68012B0CD9BA68BE
:1056F000FB691344FA68128892B21A807B68023BF5
:105700007B60FB690233FB617B68012B0CD10EE0EF
:10571000FB695A1CFA61BA681344FA681278D2B26B
:105720001A707B68013B7B607B68002BC9D1FB69E9
:1057300018462037BD4680BD80B483B000AF786086
:105740007B68DB691B0E03F03F0318460C37BD4630
:105750005DF8047B704780B588B000AFF860B96031
:105760007A60BB68002B02D07B68002B01D100233C
:105770004BE0F868FFF746FCB861F868FFF7EAFB12
:1057800003467B617A68BB699A4201D9BB697B6039
:105790007B69082B03D97B6823F001037B6000231E
:1057A000FB612EE07B69082B20D97B68032B0CD989
:1057B000FB68B968FA690A4412681A607B68043B9E
:1057C0007B60FB690433FB611BE07B68012B18D90C
:1057D000FB68B968FA690A44128892B21A807B6839
:1057E000023B7B60FB690233FB610AE0FB695A1CE8
:1057F000FA61BA6813441A78FB681A707B68013B37
:105800007B607B68002BCDD1FB6918462037BD46F5
:1058100080BD80B483B000AF78607B68DB691B0A11
:1058200003F03F03C3F1200318460C37BD465DF873
:10583000047B704780B500AF0F4B1B6803F48033C7
:10584000002B16D00D4B1B68002B05DD0B4B1B6886
:10585000013B0A4A13600CE000F0F6F8084B1B68A5
:10586000002B06D0064B1B6800209847044B0022F3
:105870001A6000BF80BD00BF10E000E02C000020D7
:10588000C81200202DE9B04386B000AF78603649D9
:10589000896879613449096821F4803133480160AD
:1058A0003149096801F00101002911D12E496FF039
:1058B0007F4048602C496FF07F4088602A4905206E
:1058C00008606FF07F4179614FF08071396103E0CA
:1058D0002549496801313961796800208846814647
:1058E0002349096800200A46034602FB09F008FB29
:1058F00003F10144A8FB02454B191D461D4A4FF018
:105900000003204629460AF03BFE02460B4613469A
:10591000FB60FA683B69B2FBF3F31A46164B1A6058
:10592000FB683A69B3FBF2F2396901FB02F29B1A98
:10593000BB60BA687B699A420CD30F4B1B6801337A
:105940000D4A13607A69BB68D21A3B6913440B4A4B
:10595000136004E07A69BB68D31A084A136000BF79
:105960001837BD46BDE8B08310E000E0C412002047
:105970000000002040420F002C000020C012002038
:1059800080B582B000AF78603960104A3B68136020
:105990000F4B1B68002B02DD6FF0050312E07B68E4
:1059A000002B01D100230DE07868FFF76BFF084B57
:1059B0001B68002B05DD074B1B68064A43F00203FA
:1059C0001360002318460837BD4680BDC81200206A
:1059D0002C00002010E000E080B500AF164B1B68E3
:1059E000002B0CDA154B1B68002B06D0134B1B68E1
:1059F00000209847114B00221A6000231AE00E4B3A
:105A00001B68002B14D10E4B9A680E4B1B689A42F0
:105A10000ED800F019F8094B1B68002B06D0074B75
:105A20001B6800209847054B00221A60002301E004
:105A30006FF00503184680BD2C000020C81200201E
:105A400010E000E0C012002080B500AF0A4B1B68D8
:105A5000002B07D0084B1B686FF00F009847064BD0
:105A600000221A60054A064B1B681360054B4FF075
:105A7000FF321A6000BF80BDC812002010E000E0B5
:105A8000C41200202C00002080B582B000AF7860E6
:105A9000164B1B68002B02DD6FF0050321E07B68CD
:105AA000002B01D100231CE07868FFF7EBFE0AE031
:105AB0000F4B1B6803F48033002B04D00B4B1B6887
:105AC000013B0A4A1360094B1B68002BF0DC00BF46
:105AD000074B9A68074B1B689A42F9D8FFF7B4FF47
